{"abi":[{"type":"constructor","inputs":[{"name":"_factory","type":"address","internalType":"address"},{"name":"_WETH","type":"address","internalType":"address"}],"stateMutability":"nonpayable"},{"type":"receive","stateMutability":"payable"},{"type":"function","name":"WETH","inputs":[],"outputs":[{"name":"","type":"address","internalType":"address"}],"stateMutability":"view"},{"type":"function","name":"addLiquidity","inputs":[{"name":"tokenA","type":"address","internalType":"address"},{"name":"tokenB","type":"address","internalType":"address"},{"name":"fee","type":"uint256","internalType":"uint256"},{"name":"amountADesired","type":"uint256","internalType":"uint256"},{"name":"amountBDesired","type":"uint256","internalType":"uint256"},{"name":"amountAMin","type":"uint256","internalType":"uint256"},{"name":"amountBMin","type":"uint256","internalType":"uint256"},{"name":"to","type":"address","internalType":"address"},{"name":"deadline","type":"uint256","internalType":"uint256"}],"outputs":[{"name":"amountA","type":"uint256","internalType":"uint256"},{"name":"amountB","type":"uint256","internalType":"uint256"},{"name":"liquidity","type":"uint256","internalType":"uint256"}],"stateMutability":"nonpayable"},{"type":"function","name":"addLiquidityETH","inputs":[{"name":"token","type":"address","internalType":"address"},{"name":"fee","type":"uint256","internalType":"uint256"},{"name":"amountTokenDesired","type":"uint256","internalType":"uint256"},{"name":"amountTokenMin","type":"uint256","internalType":"uint256"},{"name":"amountETHMin","type":"uint256","internalType":"uint256"},{"name":"to","type":"address","internalType":"address"},{"name":"deadline","type":"uint256","internalType":"uint256"}],"outputs":[{"name":"amountToken","type":"uint256","internalType":"uint256"},{"name":"amountETH","type":"uint256","internalType":"uint256"},{"name":"liquidity","type":"uint256","internalType":"uint256"}],"stateMutability":"payable"},{"type":"function","name":"factory","inputs":[],"outputs":[{"name":"","type":"address","internalType":"address"}],"stateMutability":"view"},{"type":"function","name":"getAmountIn","inputs":[{"name":"amountOut","type":"uint256","internalType":"uint256"},{"name":"reserveIn","type":"uint256","internalType":"uint256"},{"name":"reserveOut","type":"uint256","internalType":"uint256"},{"name":"fee","type":"uint256","internalType":"uint256"}],"outputs":[{"name":"amountIn","type":"uint256","internalType":"uint256"}],"stateMutability":"pure"},{"type":"function","name":"getAmountOut","inputs":[{"name":"amountIn","type":"uint256","internalType":"uint256"},{"name":"reserveIn","type":"uint256","internalType":"uint256"},{"name":"reserveOut","type":"uint256","internalType":"uint256"},{"name":"fee","type":"uint256","internalType":"uint256"}],"outputs":[{"name":"amountOut","type":"uint256","internalType":"uint256"}],"stateMutability":"pure"},{"type":"function","name":"getAmountsIn","inputs":[{"name":"amountOut","type":"uint256","internalType":"uint256"},{"name":"path","type":"address[]","internalType":"address[]"},{"name":"fees","type":"uint256[]","internalType":"uint256[]"}],"outputs":[{"name":"amounts","type":"uint256[]","internalType":"uint256[]"}],"stateMutability":"view"},{"type":"function","name":"getAmountsOut","inputs":[{"name":"amountIn","type":"uint256","internalType":"uint256"},{"name":"path","type":"address[]","internalType":"address[]"},{"name":"fees","type":"uint256[]","internalType":"uint256[]"}],"outputs":[{"name":"amounts","type":"uint256[]","internalType":"uint256[]"}],"stateMutability":"view"},{"type":"function","name":"quote","inputs":[{"name":"amountA","type":"uint256","internalType":"uint256"},{"name":"reserveA","type":"uint256","internalType":"uint256"},{"name":"reserveB","type":"uint256","internalType":"uint256"}],"outputs":[{"name":"amountB","type":"uint256","internalType":"uint256"}],"stateMutability":"pure"},{"type":"function","name":"removeLiquidity","inputs":[{"name":"tokenA","type":"address","internalType":"address"},{"name":"tokenB","type":"address","internalType":"address"},{"name":"fee","type":"uint256","internalType":"uint256"},{"name":"liquidity","type":"uint256","internalType":"uint256"},{"name":"amountAMin","type":"uint256","internalType":"uint256"},{"name":"amountBMin","type":"uint256","internalType":"uint256"},{"name":"to","type":"address","internalType":"address"},{"name":"deadline","type":"uint256","internalType":"uint256"}],"outputs":[{"name":"amountA","type":"uint256","internalType":"uint256"},{"name":"amountB","type":"uint256","internalType":"uint256"}],"stateMutability":"nonpayable"},{"type":"function","name":"removeLiquidityETH","inputs":[{"name":"token","type":"address","internalType":"address"},{"name":"fee","type":"uint256","internalType":"uint256"},{"name":"liquidity","type":"uint256","internalType":"uint256"},{"name":"amountTokenMin","type":"uint256","internalType":"uint256"},{"name":"amountETHMin","type":"uint256","internalType":"uint256"},{"name":"to","type":"address","internalType":"address"},{"name":"deadline","type":"uint256","internalType":"uint256"}],"outputs":[{"name":"amountToken","type":"uint256","internalType":"uint256"},{"name":"amountETH","type":"uint256","internalType":"uint256"}],"stateMutability":"nonpayable"},{"type":"function","name":"removeLiquidityETHSupportingFeeOnTransferTokens","inputs":[{"name":"token","type":"address","internalType":"address"},{"name":"fee","type":"uint256","internalType":"uint256"},{"name":"liquidity","type":"uint256","internalType":"uint256"},{"name":"amountTokenMin","type":"uint256","internalType":"uint256"},{"name":"amountETHMin","type":"uint256","internalType":"uint256"},{"name":"to","type":"address","internalType":"address"},{"name":"deadline","type":"uint256","internalType":"uint256"}],"outputs":[{"name":"amountETH","type":"uint256","internalType":"uint256"}],"stateMutability":"nonpayable"},{"type":"function","name":"removeLiquidityETHWithPermit","inputs":[{"name":"params","type":"tuple","internalType":"struct RemoveLiquidityETHParams","components":[{"name":"token","type":"address","internalType":"address"},{"name":"fee","type":"uint256","internalType":"uint256"},{"name":"liquidity","type":"uint256","internalType":"uint256"},{"name":"amountTokenMin","type":"uint256","internalType":"uint256"},{"name":"amountETHMin","type":"uint256","internalType":"uint256"},{"name":"to","type":"address","internalType":"address"},{"name":"deadline","type":"uint256","internalType":"uint256"},{"name":"approveMax","type":"bool","internalType":"bool"},{"name":"v","type":"uint8","internalType":"uint8"},{"name":"r","type":"bytes32","internalType":"bytes32"},{"name":"s","type":"bytes32","internalType":"bytes32"}]}],"outputs":[{"name":"amountToken","type":"uint256","internalType":"uint256"},{"name":"amountETH","type":"uint256","internalType":"uint256"}],"stateMutability":"nonpayable"},{"type":"function","name":"removeLiquidityETHWithPermitSupportingFeeOnTransferTokens","inputs":[{"name":"token","type":"address","internalType":"address"},{"name":"fee","type":"uint256","internalType":"uint256"},{"name":"liquidity","type":"uint256","internalType":"uint256"},{"name":"amountTokenMin","type":"uint256","internalType":"uint256"},{"name":"amountETHMin","type":"uint256","internalType":"uint256"},{"name":"to","type":"address","internalType":"address"},{"name":"deadline","type":"uint256","internalType":"uint256"},{"name":"approveMax","type":"bool","internalType":"bool"},{"name":"v","type":"uint8","internalType":"uint8"},{"name":"r","type":"bytes32","internalType":"bytes32"},{"name":"s","type":"bytes32","internalType":"bytes32"}],"outputs":[{"name":"amountETH","type":"uint256","internalType":"uint256"}],"stateMutability":"nonpayable"},{"type":"function","name":"removeLiquidityWithPermit","inputs":[{"name":"params","type":"tuple","internalType":"struct RemoveLiquidityParams","components":[{"name":"tokenA","type":"address","internalType":"address"},{"name":"tokenB","type":"address","internalType":"address"},{"name":"fee","type":"uint256","internalType":"uint256"},{"name":"liquidity","type":"uint256","internalType":"uint256"},{"name":"amountAMin","type":"uint256","internalType":"uint256"},{"name":"amountBMin","type":"uint256","internalType":"uint256"},{"name":"to","type":"address","internalType":"address"},{"name":"deadline","type":"uint256","internalType":"uint256"},{"name":"approveMax","type":"bool","internalType":"bool"},{"name":"v","type":"uint8","internalType":"uint8"},{"name":"r","type":"bytes32","internalType":"bytes32"},{"name":"s","type":"bytes32","internalType":"bytes32"}]}],"outputs":[{"name":"amountA","type":"uint256","internalType":"uint256"},{"name":"amountB","type":"uint256","internalType":"uint256"}],"stateMutability":"nonpayable"},{"type":"function","name":"swapETHForExactTokens","inputs":[{"name":"amountOut","type":"uint256","internalType":"uint256"},{"name":"path","type":"address[]","internalType":"address[]"},{"name":"fees","type":"uint256[]","internalType":"uint256[]"},{"name":"to","type":"address","internalType":"address"},{"name":"deadline","type":"uint256","internalType":"uint256"}],"outputs":[{"name":"amounts","type":"uint256[]","internalType":"uint256[]"}],"stateMutability":"payable"},{"type":"function","name":"swapExactETHForTokens","inputs":[{"name":"amountOutMin","type":"uint256","internalType":"uint256"},{"name":"path","type":"address[]","internalType":"address[]"},{"name":"fees","type":"uint256[]","internalType":"uint256[]"},{"name":"to","type":"address","internalType":"address"},{"name":"deadline","type":"uint256","internalType":"uint256"}],"outputs":[{"name":"amounts","type":"uint256[]","internalType":"uint256[]"}],"stateMutability":"payable"},{"type":"function","name":"swapExactETHForTokensSupportingFeeOnTransferTokens","inputs":[{"name":"amountOutMin","type":"uint256","internalType":"uint256"},{"name":"path","type":"address[]","internalType":"address[]"},{"name":"fees","type":"uint256[]","internalType":"uint256[]"},{"name":"to","type":"address","internalType":"address"},{"name":"deadline","type":"uint256","internalType":"uint256"}],"outputs":[],"stateMutability":"payable"},{"type":"function","name":"swapExactTokensForETH","inputs":[{"name":"amountIn","type":"uint256","internalType":"uint256"},{"name":"amountOutMin","type":"uint256","internalType":"uint256"},{"name":"path","type":"address[]","internalType":"address[]"},{"name":"fees","type":"uint256[]","internalType":"uint256[]"},{"name":"to","type":"address","internalType":"address"},{"name":"deadline","type":"uint256","internalType":"uint256"}],"outputs":[{"name":"amounts","type":"uint256[]","internalType":"uint256[]"}],"stateMutability":"nonpayable"},{"type":"function","name":"swapExactTokensForETHSupportingFeeOnTransferTokens","inputs":[{"name":"amountIn","type":"uint256","internalType":"uint256"},{"name":"amountOutMin","type":"uint256","internalType":"uint256"},{"name":"path","type":"address[]","internalType":"address[]"},{"name":"fees","type":"uint256[]","internalType":"uint256[]"},{"name":"to","type":"address","internalType":"address"},{"name":"deadline","type":"uint256","internalType":"uint256"}],"outputs":[],"stateMutability":"nonpayable"},{"type":"function","name":"swapExactTokensForTokens","inputs":[{"name":"amountIn","type":"uint256","internalType":"uint256"},{"name":"amountOutMin","type":"uint256","internalType":"uint256"},{"name":"path","type":"address[]","internalType":"address[]"},{"name":"fees","type":"uint256[]","internalType":"uint256[]"},{"name":"to","type":"address","internalType":"address"},{"name":"deadline","type":"uint256","internalType":"uint256"}],"outputs":[{"name":"amounts","type":"uint256[]","internalType":"uint256[]"}],"stateMutability":"nonpayable"},{"type":"function","name":"swapExactTokensForTokensSupportingFeeOnTransferTokens","inputs":[{"name":"amountIn","type":"uint256","internalType":"uint256"},{"name":"amountOutMin","type":"uint256","internalType":"uint256"},{"name":"path","type":"address[]","internalType":"address[]"},{"name":"fees","type":"uint256[]","internalType":"uint256[]"},{"name":"to","type":"address","internalType":"address"},{"name":"deadline","type":"uint256","internalType":"uint256"}],"outputs":[],"stateMutability":"nonpayable"},{"type":"function","name":"swapTokensForExactETH","inputs":[{"name":"amountOut","type":"uint256","internalType":"uint256"},{"name":"amountInMax","type":"uint256","internalType":"uint256"},{"name":"path","type":"address[]","internalType":"address[]"},{"name":"fees","type":"uint256[]","internalType":"uint256[]"},{"name":"to","type":"address","internalType":"address"},{"name":"deadline","type":"uint256","internalType":"uint256"}],"outputs":[{"name":"amounts","type":"uint256[]","internalType":"uint256[]"}],"stateMutability":"nonpayable"},{"type":"function","name":"swapTokensForExactTokens","inputs":[{"name":"amountOut","type":"uint256","internalType":"uint256"},{"name":"amountInMax","type":"uint256","internalType":"uint256"},{"name":"path","type":"address[]","internalType":"address[]"},{"name":"fees","type":"uint256[]","internalType":"uint256[]"},{"name":"to","type":"address","internalType":"address"},{"name":"deadline","type":"uint256","internalType":"uint256"}],"outputs":[{"name":"amounts","type":"uint256[]","internalType":"uint256[]"}],"stateMutability":"nonpayable"}],"bytecode":{"object":"0x60c06040523480156200001157600080fd5b506040516200479538038062004795833981016040819052620000349162000053565b6001600160601b0319606092831b8116608052911b1660a052620000aa565b6000806040838503121562000066578182fd5b8251620000738162000091565b6020840151909250620000868162000091565b809150509250929050565b6001600160a01b0381168114620000a757600080fd5b50565b60805160601c60a05160601c6145bd620001d86000398061015f52806107805280610884528061094252806109dd5280610e4e5280610ec55280610f3952806111ac528061130052806114b5528061158e52806116c5528061174d5280611919528061197052806119a55280611a2b5280611d475280611dce5280611e1f5280611ec65280611f945280612139528061227352806122fb52806124805250806104e552806109bb5280610ae45280610bf55280610ce05280610dee5280610f6b528061117e52806113705280611603528061177f528061194e5280611b8b5280611d7d5280612007528061205152806121ae528061232d52806124f052806125b952806128d75280612a745280612bf65280612cad5280612d425280613103528061315d52506145bd6000f3fe60806040526004361061014f5760003560e01c80638d2468e4116100b6578063c194f8611161006f578063c194f861146103e8578063c45a015514610408578063e26997dc1461041d578063e36dc8761461043d578063edb2af1f14610450578063ffa5d80b1461047057610188565b80638d2468e41461033357806396adb33714610346578063ad5c464814610366578063ad615dec14610388578063b677fd5c146103a8578063ba3690cb146103c857610188565b806356191a591161010857806356191a591461027f578063571fd0121461029f5780636fee0fa9146102bf57806383c54d52146102d2578063851d14f5146103005780638c0059481461032057610188565b806327c1169b1461018d57806327ec1eff146101ad5780633cd9979d146101cd578063426e40b11461020357806352707d8c1461023257806355a7cf781461025257610188565b3661018857336001600160a01b037f0000000000000000000000000000000000000000000000000000000000000000161461018657fe5b005b600080fd5b34801561019957600080fd5b506101866101a8366004613ca9565b610490565b3480156101b957600080fd5b506101866101c8366004613ca9565b610755565b3480156101d957600080fd5b506101ed6101e83660046139b9565b6109b3565b6040516101fa9190614458565b60405180910390f35b34801561020f57600080fd5b5061022361021e3660046138cc565b610aa3565b6040516101fa939291906144bf565b34801561023e57600080fd5b506101ed61024d366004613d71565b610bb6565b34801561025e57600080fd5b5061027261026d366004613ca9565b610bcd565b6040516101fa9190613eef565b34801561028b57600080fd5b5061027261029a366004613bbc565b610de7565b3480156102ab57600080fd5b506101ed6102ba366004613d71565b610e1d565b6101866102cd366004613b28565b610e2b565b3480156102de57600080fd5b506102f26102ed366004613a92565b611175565b6040516101fa929190614461565b34801561030c57600080fd5b5061027261031b366004613ca9565b6112d3565b61027261032e366004613b28565b611569565b610223610341366004613951565b6118ed565b34801561035257600080fd5b506102f2610361366004613851565b611b60565b34801561037257600080fd5b5061037b611d45565b6040516101fa9190613e5d565b34801561039457600080fd5b506101ed6103a3366004613d46565b611d69565b3480156103b457600080fd5b506102726103c3366004613bbc565b611d76565b3480156103d457600080fd5b506102f26103e3366004613951565b611da4565b3480156103f457600080fd5b506101ed610403366004613951565b611e9d565b34801561041457600080fd5b5061037b612005565b34801561042957600080fd5b50610272610438366004613ca9565b612029565b61027261044b366004613b28565b612114565b34801561045c57600080fd5b5061027261046b366004613ca9565b612453565b34801561047c57600080fd5b506102f261048b366004613aaa565b6125b0565b80428110156104ba5760405162461bcd60e51b81526004016104b190613f62565b60405180910390fd5b610567878760008181106104ca57fe5b90506020020160208101906104df9190613812565b336105617f00000000000000000000000000000000000000000000000000000000000000008b8b600081811061051157fe5b90506020020160208101906105269190613812565b8c8c600181811061053357fe5b90506020020160208101906105489190613812565b8b8b600081811061055557fe5b90506020020135612702565b8c612775565b60008787600019810181811061057957fe5b905060200201602081019061058e9190613812565b6001600160a01b03166370a08231856040518263ffffffff1660e01b81526004016105b99190613e5d565b60206040518083038186803b1580156105d157600080fd5b505afa1580156105e5573d6000803e3d6000fd5b505050506040513d601f19601f820116820180604052508101906106099190613b10565b905061067a88888080602002602001604051908101604052809392919081815260200183836020028082843760009201919091525050604080516020808c0282810182019093528b82529093508b92508a918291850190849080828437600092019190915250899250612866915050565b8861072b828a8a600019810181811061068f57fe5b90506020020160208101906106a49190613812565b6001600160a01b03166370a08231886040518263ffffffff1660e01b81526004016106cf9190613e5d565b60206040518083038186803b1580156106e757600080fd5b505afa1580156106fb573d6000803e3d6000fd5b505050506040513d601f19601f8201168201806040525081019061071f9190613b10565b9063ffffffff612b2616565b10156107495760405162461bcd60e51b81526004016104b19061433e565b50505050505050505050565b80428110156107765760405162461bcd60e51b81526004016104b190613f62565b6001600160a01b037f000000000000000000000000000000000000000000000000000000000000000016878760001981018181106107b057fe5b90506020020160208101906107c59190613812565b6001600160a01b0316146107eb5760405162461bcd60e51b81526004016104b190614171565b6107fb878760008181106104ca57fe5b61086a87878080602002602001604051908101604052809392919081815260200183836020028082843760009201919091525050604080516020808b0282810182019093528a82529093508a925089918291850190849080828437600092019190915250309250612866915050565b6040516370a0823160e01b81526000906001600160a01b037f000000000000000000000000000000000000000000000000000000000000000016906370a08231906108b9903090600401613e5d565b60206040518083038186803b1580156108d157600080fd5b505afa1580156108e5573d6000803e3d6000fd5b505050506040513d601f19601f820116820180604052508101906109099190613b10565b90508881101561092b5760405162461bcd60e51b81526004016104b19061433e565b604051632e1a7d4d60e01b81526001600160a01b037f00000000000000000000000000000000000000000000000000000000000000001690632e1a7d4d90610977908490600401614458565b600060405180830381600087803b15801561099157600080fd5b505af11580156109a5573d6000803e3d6000fd5b505050506107498482612b4f565b600080610a027f00000000000000000000000000000000000000000000000000000000000000008e7f00000000000000000000000000000000000000000000000000000000000000008f612702565b9050600086610a11578b610a15565b6000195b60405163d505accf60e01b81529091506001600160a01b0383169063d505accf90610a50903390309086908e908d908d908d90600401613e71565b600060405180830381600087803b158015610a6a57600080fd5b505af1158015610a7e573d6000803e3d6000fd5b50505050610a918e8e8e8e8e8e8e611e9d565b9e9d5050505050505050505050505050565b60008060008342811015610ac95760405162461bcd60e51b81526004016104b190613f62565b610ad88d8d8d8d8d8d8d612be1565b90945092506000610b0b7f00000000000000000000000000000000000000000000000000000000000000008f8f8f612702565b9050610b198e338388612775565b610b258d338387612775565b6040516335313c2160e11b81526001600160a01b03821690636a62784290610b51908a90600401613e5d565b602060405180830381600087803b158015610b6b57600080fd5b505af1158015610b7f573d6000803e3d6000fd5b505050506040513d601f19601f82011682018060405250810190610ba39190613b10565b9250505099509950999650505050505050565b6000610bc485858585612e1b565b95945050505050565b60608142811015610bf05760405162461bcd60e51b81526004016104b190613f62565b610c7f7f00000000000000000000000000000000000000000000000000000000000000008b8a8a8080602002602001604051908101604052809392919081815260200183836020028082843760009201919091525050604080516020808e0282810182019093528d82529093508d92508c918291850190849080828437600092019190915250612ed192505050565b91508882600081518110610c8f57fe5b60200260200101511115610cb55760405162461bcd60e51b81526004016104b1906142b1565b610d6a88886000818110610cc557fe5b9050602002016020810190610cda9190613812565b33610d507f00000000000000000000000000000000000000000000000000000000000000008c8c6000818110610d0c57fe5b9050602002016020810190610d219190613812565b8d8d6001818110610d2e57fe5b9050602002016020810190610d439190613812565b8c8c600081811061055557fe5b85600081518110610d5d57fe5b6020026020010151612775565b610dda8289898080602002602001604051908101604052809392919081815260200183836020028082843760009201919091525050604080516020808d0282810182019093528c82529093508c92508b9182918501908490808284376000920191909152508a925061303c915050565b5098975050505050505050565b6060610e157f0000000000000000000000000000000000000000000000000000000000000000858585612ed1565b949350505050565b6000610bc48585858561322e565b8042811015610e4c5760405162461bcd60e51b81526004016104b190613f62565b7f00000000000000000000000000000000000000000000000000000000000000006001600160a01b031687876000818110610e8357fe5b9050602002016020810190610e989190613812565b6001600160a01b031614610ebe5760405162461bcd60e51b81526004016104b190614171565b60003490507f00000000000000000000000000000000000000000000000000000000000000006001600160a01b031663d0e30db0826040518263ffffffff1660e01b81526004016000604051808303818588803b158015610f1e57600080fd5b505af1158015610f32573d6000803e3d6000fd5b50505050507f00000000000000000000000000000000000000000000000000000000000000006001600160a01b031663a9059cbb610f977f00000000000000000000000000000000000000000000000000000000000000008b8b600081811061051157fe5b836040518363ffffffff1660e01b8152600401610fb5929190613ed6565b602060405180830381600087803b158015610fcf57600080fd5b505af1158015610fe3573d6000803e3d6000fd5b505050506040513d601f19601f820116820180604052508101906110079190613a76565b61100d57fe5b60008888600019810181811061101f57fe5b90506020020160208101906110349190613812565b6001600160a01b03166370a08231866040518263ffffffff1660e01b815260040161105f9190613e5d565b60206040518083038186803b15801561107757600080fd5b505afa15801561108b573d6000803e3d6000fd5b505050506040513d601f19601f820116820180604052508101906110af9190613b10565b905061112089898080602002602001604051908101604052809392919081815260200183836020028082843760009201919091525050604080516020808d0282810182019093528c82529093508c92508b9182918501908490808284376000920191909152508a9250612866915050565b8961072b828b8b600019810181811061113557fe5b905060200201602081019061114a9190613812565b6001600160a01b03166370a08231896040518263ffffffff1660e01b81526004016106cf9190613e5d565b600080806111d57f00000000000000000000000000000000000000000000000000000000000000006111aa6020870187613812565b7f00000000000000000000000000000000000000000000000000000000000000008760200135612702565b905060006111ea610100860160e08701613a5a565b6111f85784604001356111fc565b6000195b90506001600160a01b03821663d505accf33308460c08a01356112276101208c016101008d01613da2565b8b61012001358c61014001356040518863ffffffff1660e01b81526004016112559796959493929190613e71565b600060405180830381600087803b15801561126f57600080fd5b505af1158015611283573d6000803e3d6000fd5b506112c792506112999150506020870187613812565b60208701356040880135606089013560808a01356112bd60c08c0160a08d01613812565b8b60c00135611da4565b90969095509350505050565b606081428110156112f65760405162461bcd60e51b81526004016104b190613f62565b6001600160a01b037f0000000000000000000000000000000000000000000000000000000000000000168888600019810181811061133057fe5b90506020020160208101906113459190613812565b6001600160a01b03161461136b5760405162461bcd60e51b81526004016104b190614171565b6113fa7f00000000000000000000000000000000000000000000000000000000000000008b8a8a8080602002602001604051908101604052809392919081815260200183836020028082843760009201919091525050604080516020808e0282810182019093528d82529093508d92508c9182918501908490808284376000920191909152506132e492505050565b9150888260018451038151811061140d57fe5b602002602001015110156114335760405162461bcd60e51b81526004016104b19061433e565b61144388886000818110610cc557fe5b6114b38289898080602002602001604051908101604052809392919081815260200183836020028082843760009201919091525050604080516020808d0282810182019093528c82529093508c92508b91829185019084908082843760009201919091525030925061303c915050565b7f00000000000000000000000000000000000000000000000000000000000000006001600160a01b0316632e1a7d4d836001855103815181106114f257fe5b60200260200101516040518263ffffffff1660e01b81526004016115169190614458565b600060405180830381600087803b15801561153057600080fd5b505af1158015611544573d6000803e3d6000fd5b50505050610dda848360018551038151811061155c57fe5b6020026020010151612b4f565b6060814281101561158c5760405162461bcd60e51b81526004016104b190613f62565b7f00000000000000000000000000000000000000000000000000000000000000006001600160a01b0316888860008181106115c357fe5b90506020020160208101906115d89190613812565b6001600160a01b0316146115fe5760405162461bcd60e51b81526004016104b190614171565b61168d7f00000000000000000000000000000000000000000000000000000000000000008a8a8a8080602002602001604051908101604052809392919081815260200183836020028082843760009201919091525050604080516020808e0282810182019093528d82529093508d92508c918291850190849080828437600092019190915250612ed192505050565b9150348260008151811061169d57fe5b602002602001015111156116c35760405162461bcd60e51b81526004016104b1906142b1565b7f00000000000000000000000000000000000000000000000000000000000000006001600160a01b031663d0e30db0836000815181106116ff57fe5b60200260200101516040518263ffffffff1660e01b81526004016000604051808303818588803b15801561173257600080fd5b505af1158015611746573d6000803e3d6000fd5b50505050507f00000000000000000000000000000000000000000000000000000000000000006001600160a01b031663a9059cbb6117ab7f00000000000000000000000000000000000000000000000000000000000000008b8b600081811061051157fe5b846000815181106117b857fe5b60200260200101516040518363ffffffff1660e01b81526004016117dd929190613ed6565b602060405180830381600087803b1580156117f757600080fd5b505af115801561180b573d6000803e3d6000fd5b505050506040513d601f19601f8201168201806040525081019061182f9190613a76565b61183557fe5b6118a58289898080602002602001604051908101604052809392919081815260200183836020028082843760009201919091525050604080516020808d0282810182019093528c82529093508c92508b9182918501908490808284376000920191909152508a925061303c915050565b816000815181106118b257fe5b60200260200101513411156118e1576118e133836000815181106118d257fe5b60200260200101513403612b4f565b50979650505050505050565b600080600083428110156119135760405162461bcd60e51b81526004016104b190613f62565b6119428b7f00000000000000000000000000000000000000000000000000000000000000008c8c348d8d612be1565b909450925060006119957f00000000000000000000000000000000000000000000000000000000000000008d7f00000000000000000000000000000000000000000000000000000000000000008e612702565b90506119a38c338388612775565b7f00000000000000000000000000000000000000000000000000000000000000006001600160a01b031663d0e30db0856040518263ffffffff1660e01b81526004016000604051808303818588803b1580156119fe57600080fd5b505af1158015611a12573d6000803e3d6000fd5b505060405163a9059cbb60e01b81526001600160a01b037f000000000000000000000000000000000000000000000000000000000000000016935063a9059cbb9250611a65915084908890600401613ed6565b602060405180830381600087803b158015611a7f57600080fd5b505af1158015611a93573d6000803e3d6000fd5b505050506040513d601f19601f82011682018060405250810190611ab79190613a76565b611abd57fe5b6040516335313c2160e11b81526001600160a01b03821690636a62784290611ae9908a90600401613e5d565b602060405180830381600087803b158015611b0357600080fd5b505af1158015611b17573d6000803e3d6000fd5b505050506040513d601f19601f82011682018060405250810190611b3b9190613b10565b925083341115611b5157611b5133853403612b4f565b50509750975097945050505050565b6000808242811015611b845760405162461bcd60e51b81526004016104b190613f62565b6000611bb27f00000000000000000000000000000000000000000000000000000000000000008d8d8d612702565b6040516323b872dd60e01b81529091506001600160a01b038216906323b872dd90611be590339085908e90600401613eb2565b602060405180830381600087803b158015611bff57600080fd5b505af1158015611c13573d6000803e3d6000fd5b505050506040513d601f19601f82011682018060405250810190611c379190613a76565b50600080826001600160a01b03166389afcb44896040518263ffffffff1660e01b8152600401611c679190613e5d565b6040805180830381600087803b158015611c8057600080fd5b505af1158015611c94573d6000803e3d6000fd5b505050506040513d601f19601f82011682018060405250810190611cb89190613c86565b915091506000611cc88f8f613432565b509050806001600160a01b03168f6001600160a01b031614611ceb578183611cee565b82825b90975095508a871015611d135760405162461bcd60e51b81526004016104b1906142f8565b89861015611d335760405162461bcd60e51b81526004016104b19061412b565b50505050509850989650505050505050565b7f000000000000000000000000000000000000000000000000000000000000000081565b6000610e158484846134bc565b6060610e157f00000000000000000000000000000000000000000000000000000000000000008585856132e4565b6000808242811015611dc85760405162461bcd60e51b81526004016104b190613f62565b611df88a7f00000000000000000000000000000000000000000000000000000000000000008b8b8b8b308b611b60565b9093509150611e088a868561352a565b604051632e1a7d4d60e01b81526001600160a01b037f00000000000000000000000000000000000000000000000000000000000000001690632e1a7d4d90611e54908590600401614458565b600060405180830381600087803b158015611e6e57600080fd5b505af1158015611e82573d6000803e3d6000fd5b50505050611e908583612b4f565b5097509795505050505050565b60008142811015611ec05760405162461bcd60e51b81526004016104b190613f62565b611ef0897f00000000000000000000000000000000000000000000000000000000000000008a8a8a8a308a611b60565b6040516370a0823160e01b8152909350611f7d91508a9086906001600160a01b038316906370a0823190611f28903090600401613e5d565b60206040518083038186803b158015611f4057600080fd5b505afa158015611f54573d6000803e3d6000fd5b505050506040513d601f19601f82011682018060405250810190611f789190613b10565b61352a565b604051632e1a7d4d60e01b81526001600160a01b037f00000000000000000000000000000000000000000000000000000000000000001690632e1a7d4d90611fc9908590600401614458565b600060405180830381600087803b158015611fe357600080fd5b505af1158015611ff7573d6000803e3d6000fd5b505050506118e18483612b4f565b7f000000000000000000000000000000000000000000000000000000000000000081565b6060814281101561204c5760405162461bcd60e51b81526004016104b190613f62565b6120db7f00000000000000000000000000000000000000000000000000000000000000008b8a8a8080602002602001604051908101604052809392919081815260200183836020028082843760009201919091525050604080516020808e0282810182019093528d82529093508d92508c9182918501908490808284376000920191909152506132e492505050565b915088826001845103815181106120ee57fe5b60200260200101511015610cb55760405162461bcd60e51b81526004016104b19061433e565b606081428110156121375760405162461bcd60e51b81526004016104b190613f62565b7f00000000000000000000000000000000000000000000000000000000000000006001600160a01b03168888600081811061216e57fe5b90506020020160208101906121839190613812565b6001600160a01b0316146121a95760405162461bcd60e51b81526004016104b190614171565b6122387f0000000000000000000000000000000000000000000000000000000000000000348a8a8080602002602001604051908101604052809392919081815260200183836020028082843760009201919091525050604080516020808e0282810182019093528d82529093508d92508c9182918501908490808284376000920191909152506132e492505050565b9150888260018451038151811061224b57fe5b602002602001015110156122715760405162461bcd60e51b81526004016104b19061433e565b7f00000000000000000000000000000000000000000000000000000000000000006001600160a01b031663d0e30db0836000815181106122ad57fe5b60200260200101516040518263ffffffff1660e01b81526004016000604051808303818588803b1580156122e057600080fd5b505af11580156122f4573d6000803e3d6000fd5b50505050507f00000000000000000000000000000000000000000000000000000000000000006001600160a01b031663a9059cbb6123597f00000000000000000000000000000000000000000000000000000000000000008b8b600081811061051157fe5b8460008151811061236657fe5b60200260200101516040518363ffffffff1660e01b815260040161238b929190613ed6565b602060405180830381600087803b1580156123a557600080fd5b505af11580156123b9573d6000803e3d6000fd5b505050506040513d601f19601f820116820180604052508101906123dd9190613a76565b6123e357fe5b6118e18289898080602002602001604051908101604052809392919081815260200183836020028082843760009201919091525050604080516020808d0282810182019093528c82529093508c92508b9182918501908490808284376000920191909152508a925061303c915050565b606081428110156124765760405162461bcd60e51b81526004016104b190613f62565b6001600160a01b037f000000000000000000000000000000000000000000000000000000000000000016888860001981018181106124b057fe5b90506020020160208101906124c59190613812565b6001600160a01b0316146124eb5760405162461bcd60e51b81526004016104b190614171565b61257a7f00000000000000000000000000000000000000000000000000000000000000008b8a8a8080602002602001604051908101604052809392919081815260200183836020028082843760009201919091525050604080516020808e0282810182019093528d82529093508d92508c918291850190849080828437600092019190915250612ed192505050565b9150888260008151811061258a57fe5b602002602001015111156114335760405162461bcd60e51b81526004016104b1906142b1565b600080806125ff7f00000000000000000000000000000000000000000000000000000000000000006125e56020870187613812565b6125f56040880160208901613812565b8760400135612702565b9050600061261561012086016101008701613a5a565b612623578460600135612627565b6000195b90506001600160a01b03821663d505accf33308460e08a01356126526101408c016101208d01613da2565b8b61014001358c61016001356040518863ffffffff1660e01b81526004016126809796959493929190613e71565b600060405180830381600087803b15801561269a57600080fd5b505af11580156126ae573d6000803e3d6000fd5b506112c792506126c49150506020870187613812565b6126d46040880160208901613812565b6040880135606089013560808a013560a08b01356126f860e08d0160c08e01613812565b8c60e00135611b60565b60008060006127118686613432565b915091508682828660405160200161272b93929190613dbd565b60405160208183030381529060405280519060200120604051602001612752929190613e07565b60408051601f198184030181529190528051602090910120979650505050505050565b60006060856001600160a01b03166323b872dd86868660405160240161279d93929190613eb2565b6040516020818303038152906040529060e01b6020820180516001600160e01b0383818316178352505050506040516127d69190613deb565b6000604051808303816000865af19150503d8060008114612813576040519150601f19603f3d011682016040523d82523d6000602084013e612818565b606091505b50915091508180156128425750805115806128425750808060200190518101906128429190613a76565b61285e5760405162461bcd60e51b81526004016104b190614041565b505050505050565b828260005b600183510381101561285e57600080600085848151811061288857fe5b602002602001015186856001018151811061289f57fe5b60200260200101518686815181106128b357fe5b602002602001015192509250925060006128cd8484613432565b50905060006128fe7f0000000000000000000000000000000000000000000000000000000000000000868686612702565b9050600080600080846001600160a01b0316630902f1ac6040518163ffffffff1660e01b815260040160606040518083038186803b15801561293f57600080fd5b505afa158015612953573d6000803e3d6000fd5b505050506040513d601f19601f820116820180604052508101906129779190613abc565b506001600160701b031691506001600160701b03169150600080876001600160a01b03168b6001600160a01b0316146129b15782846129b4565b83835b915091506129e8828c6001600160a01b03166370a082318a6040518263ffffffff1660e01b81526004016106cf9190613e5d565b95506129f68683838c612e1b565b945050505050600080856001600160a01b0316896001600160a01b031614612a2057826000612a24565b6000835b9150915060008c8b60020181518110612a3957fe5b602002602001015190508b8b60010181518110612a5257fe5b60200260200101519750600060028e51038c10612a6f578e612a9b565b612a9b7f00000000000000000000000000000000000000000000000000000000000000008b848c612702565b6040805160008152602081019182905263022c0d9f60e01b9091529091506001600160a01b0388169063022c0d9f90612add908790879086906024810161446f565b600060405180830381600087803b158015612af757600080fd5b505af1158015612b0b573d6000803e3d6000fd5b50506001909d019c5061286b9b505050505050505050505050565b80820382811115612b495760405162461bcd60e51b81526004016104b190613f33565b92915050565b604080516000808252602082019092526001600160a01b038416908390604051612b799190613deb565b60006040518083038185875af1925050503d8060008114612bb6576040519150601f19603f3d011682016040523d82523d6000602084013e612bbb565b606091505b5050905080612bdc5760405162461bcd60e51b81526004016104b190614092565b505050565b60405162bd9da960e71b8152600090819081907f00000000000000000000000000000000000000000000000000000000000000006001600160a01b031690635eced48090612c37908d908d908d90600401613eb2565b60206040518083038186803b158015612c4f57600080fd5b505afa158015612c63573d6000803e3d6000fd5b505050506040513d601f19601f82011682018060405250810190612c879190613835565b6001600160a01b03161415612d3a57604051631ad8034760e21b81526001600160a01b037f00000000000000000000000000000000000000000000000000000000000000001690636b600d1c90612ce6908c908c908c90600401613eb2565b602060405180830381600087803b158015612d0057600080fd5b505af1158015612d14573d6000803e3d6000fd5b505050506040513d601f19601f82011682018060405250810190612d389190613835565b505b600080612d697f00000000000000000000000000000000000000000000000000000000000000008c8c8c613611565b91509150816000148015612d7b575080155b15612d8b57879350869250612e0d565b6000612d988984846134bc565b9050878111612dcc5785811015612dc15760405162461bcd60e51b81526004016104b19061412b565b889450925082612e0b565b6000612dd98984866134bc565b905089811115612de557fe5b87811015612e055760405162461bcd60e51b81526004016104b1906142f8565b94508793505b505b505097509795505050505050565b6000808511612e3c5760405162461bcd60e51b81526004016104b19061440d565b600084118015612e4c5750600083115b612e685760405162461bcd60e51b81526004016104b1906141df565b6000612e7f8661271085900363ffffffff6136ec16565b90506000612e93828663ffffffff6136ec16565b90506000612eb983612ead8961271063ffffffff6136ec16565b9063ffffffff61372316565b9050808281612ec457fe5b0498975050505050505050565b6060600283511015612ef55760405162461bcd60e51b81526004016104b1906141a8565b8151600101835114612f195760405162461bcd60e51b81526004016104b190614227565b825167ffffffffffffffff81118015612f3157600080fd5b50604051908082528060200260200182016040528015612f5b578160200160208202803683370190505b5090508381600183510381518110612f6f57fe5b60209081029190910101528251600019015b801561303357600080612fd588876001860381518110612f9d57fe5b6020026020010151888681518110612fb157fe5b6020026020010151886001880381518110612fc857fe5b6020026020010151613611565b9150915061300e848481518110612fe857fe5b6020026020010151838388600188038151811061300157fe5b602002602001015161322e565b84600185038151811061301d57fe5b6020908102919091010152505060001901612f81565b50949350505050565b60005b600184510381101561322757600080600086848151811061305c57fe5b602002602001015187856001018151811061307357fe5b602002602001015187868151811061308757fe5b602002602001015192509250925060006130a18484613432565b50905060008986600101815181106130b557fe5b60200260200101519050600080836001600160a01b0316876001600160a01b0316146130e3578260006130e7565b6000835b91509150600060028c510389106130fe5789613156565b6131567f0000000000000000000000000000000000000000000000000000000000000000888e8c6002018151811061313257fe5b60200260200101518e8d6001018151811061314957fe5b6020026020010151612702565b90506131847f0000000000000000000000000000000000000000000000000000000000000000898989612702565b6001600160a01b031663022c0d9f84848460006040519080825280601f01601f1916602001820160405280156131c1576020820181803683370190505b506040518563ffffffff1660e01b81526004016131e1949392919061446f565b600060405180830381600087803b1580156131fb57600080fd5b505af115801561320f573d6000803e3d6000fd5b50506001909a01995061303f98505050505050505050565b5050505050565b600080851161324f5760405162461bcd60e51b81526004016104b190613fc7565b60008411801561325f5750600083115b61327b5760405162461bcd60e51b81526004016104b1906141df565b600061329f612710613293878963ffffffff6136ec16565b9063ffffffff6136ec16565b905060006132bc612710859003613293878a63ffffffff612b2616565b90506132d960018284816132cc57fe5b049063ffffffff61372316565b979650505050505050565b60606002835110156133085760405162461bcd60e51b81526004016104b1906141a8565b815160010183511461332c5760405162461bcd60e51b81526004016104b190614227565b825167ffffffffffffffff8111801561334457600080fd5b5060405190808252806020026020018201604052801561336e578160200160208202803683370190505b509050838160008151811061337f57fe5b60200260200101818152505060005b6001845103811015613033576000806133d8888785815181106133ad57fe5b60200260200101518886600101815181106133c457fe5b6020026020010151888781518110612fc857fe5b9150915061340e8484815181106133eb57fe5b6020026020010151838388878151811061340157fe5b6020026020010151612e1b565b84846001018151811061341d57fe5b6020908102919091010152505060010161338e565b600080826001600160a01b0316846001600160a01b031614156134675760405162461bcd60e51b81526004016104b1906140e6565b826001600160a01b0316846001600160a01b03161061348757828461348a565b83835b90925090506001600160a01b0382166134b55760405162461bcd60e51b81526004016104b1906143d6565b9250929050565b60008084116134dd5760405162461bcd60e51b81526004016104b19061426c565b6000831180156134ed5750600082115b6135095760405162461bcd60e51b81526004016104b1906141df565b8261351a858463ffffffff6136ec16565b8161352157fe5b04949350505050565b60006060846001600160a01b031663a9059cbb8585604051602401613550929190613ed6565b6040516020818303038152906040529060e01b6020820180516001600160e01b0383818316178352505050506040516135899190613deb565b6000604051808303816000865af19150503d80600081146135c6576040519150601f19603f3d011682016040523d82523d6000602084013e6135cb565b606091505b50915091508180156135f55750805115806135f55750808060200190518101906135f59190613a76565b6132275760405162461bcd60e51b81526004016104b190614389565b60008060006136208686613432565b50905060008061363289898989612702565b6001600160a01b0316630902f1ac6040518163ffffffff1660e01b815260040160606040518083038186803b15801561366a57600080fd5b505afa15801561367e573d6000803e3d6000fd5b505050506040513d601f19601f820116820180604052508101906136a29190613abc565b506001600160701b031691506001600160701b03169150826001600160a01b0316886001600160a01b0316146136d95780826136dc565b81815b909a909950975050505050505050565b60008115806137075750508082028282828161370457fe5b04145b612b495760405162461bcd60e51b81526004016104b190613f99565b80820182811015612b495760405162461bcd60e51b81526004016104b190614013565b8035612b498161454c565b60008083601f840112613762578182fd5b50813567ffffffffffffffff811115613779578182fd5b60208301915083602080830285010111156134b557600080fd5b600082601f8301126137a3578081fd5b81356137b66137b1826144fc565b6144d5565b8181529150602080830190848101818402860182018710156137d757600080fd5b60005b848110156137f6578135845292820192908201906001016137da565b505050505092915050565b803560ff81168114612b4957600080fd5b600060208284031215613823578081fd5b813561382e8161454c565b9392505050565b600060208284031215613846578081fd5b815161382e8161454c565b600080600080600080600080610100898b03121561386d578384fd5b88356138788161454c565b975060208901356138888161454c565b965060408901359550606089013594506080890135935060a0890135925060c08901356138b48161454c565b8092505060e089013590509295985092959890939650565b60008060008060008060008060006101208a8c0312156138ea578081fd5b89356138f58161454c565b985060208a01356139058161454c565b975060408a0135965060608a0135955060808a0135945060a08a0135935060c08a0135925060e08a01356139388161454c565b809250506101008a013590509295985092959850929598565b600080600080600080600060e0888a03121561396b578283fd5b87356139768161454c565b96506020880135955060408801359450606088013593506080880135925060a08801356139a28161454c565b8092505060c0880135905092959891949750929550565b60008060008060008060008060008060006101608c8e0312156139da578485fd5b8b356139e58161454c565b9a5060208c0135995060408c0135985060608c0135975060808c0135965060a08c0135613a118161454c565b955060c08c0135945060e08c0135613a2881614564565b9350613a388d6101008e01613801565b92506101208c013591506101408c013590509295989b509295989b9093969950565b600060208284031215613a6b578081fd5b813561382e81614564565b600060208284031215613a87578081fd5b815161382e81614564565b60006101608284031215613aa4578081fd5b50919050565b60006101808284031215613aa4578081fd5b600080600060608486031215613ad0578081fd5b8351613adb81614572565b6020850151909350613aec81614572565b604085015190925063ffffffff81168114613b05578182fd5b809150509250925092565b600060208284031215613b21578081fd5b5051919050565b600080600080600080600060a0888a031215613b42578081fd5b87359650602088013567ffffffffffffffff80821115613b60578283fd5b613b6c8b838c01613751565b909850965060408a0135915080821115613b84578283fd5b50613b918a828b01613751565b9095509350506060880135613ba58161454c565b809250506080880135905092959891949750929550565b600080600060608486031215613bd0578081fd5b8335925060208085013567ffffffffffffffff80821115613bef578384fd5b81870188601f820112613c00578485fd5b80359250613c106137b1846144fc565b83815284810190828601868602840187018c1015613c2c578788fd5b8793505b85841015613c5657613c428c82613746565b835260019390930192918601918601613c30565b50965050506040870135925080831115613c6e578384fd5b5050613c7c86828701613793565b9150509250925092565b60008060408385031215613c98578182fd5b505080516020909101519092909150565b60008060008060008060008060c0898b031215613cc4578182fd5b8835975060208901359650604089013567ffffffffffffffff80821115613ce9578384fd5b613cf58c838d01613751565b909850965060608b0135915080821115613d0d578384fd5b50613d1a8b828c01613751565b9095509350506080890135613d2e8161454c565b8092505060a089013590509295985092959890939650565b600080600060608486031215613d5a578081fd5b505081359360208301359350604090920135919050565b60008060008060808587031215613d86578182fd5b5050823594602084013594506040840135936060013592509050565b600060208284031215613db3578081fd5b61382e8383613801565b6bffffffffffffffffffffffff19606094851b811682529290931b9091166014830152602882015260480190565b60008251613dfd81846020870161451c565b9190910192915050565b6001600160f81b0319815260609290921b6bffffffffffffffffffffffff1916600183015260158201527f67a372377cf6d7f78cfdcc9df0bc21e1139bd49e5a47c33ee0de5389a4396410603582015260550190565b6001600160a01b0391909116815260200190565b6001600160a01b0397881681529590961660208601526040850193909352606084019190915260ff16608083015260a082015260c081019190915260e00190565b6001600160a01b039384168152919092166020820152604081019190915260600190565b6001600160a01b03929092168252602082015260400190565b6020808252825182820181905260009190848201906040850190845b81811015613f2757835183529284019291840191600101613f0b565b50909695505050505050565b60208082526015908201527464732d6d6174682d7375622d756e646572666c6f7760581b604082015260600190565b60208082526018908201527f556e69737761705632526f757465723a20455850495245440000000000000000604082015260600190565b60208082526014908201527364732d6d6174682d6d756c2d6f766572666c6f7760601b604082015260600190565b6020808252602c908201527f556e697377617056324c6962726172793a20494e53554646494349454e545f4f60408201526b155514155517d05353d5539560a21b606082015260800190565b60208082526014908201527364732d6d6174682d6164642d6f766572666c6f7760601b604082015260600190565b60208082526031908201527f5472616e7366657248656c7065723a3a7472616e7366657246726f6d3a207472604082015270185b9cd9995c919c9bdb4819985a5b1959607a1b606082015260800190565b60208082526034908201527f5472616e7366657248656c7065723a3a736166655472616e736665724554483a60408201527308115512081d1c985b9cd9995c8819985a5b195960621b606082015260800190565b60208082526025908201527f556e697377617056324c6962726172793a204944454e544943414c5f41444452604082015264455353455360d81b606082015260800190565b60208082526026908201527f556e69737761705632526f757465723a20494e53554646494349454e545f425f604082015265105353d5539560d21b606082015260800190565b6020808252601d908201527f556e69737761705632526f757465723a20494e56414c49445f50415448000000604082015260600190565b6020808252601e908201527f556e697377617056324c6962726172793a20494e56414c49445f504154480000604082015260600190565b60208082526028908201527f556e697377617056324c6962726172793a20494e53554646494349454e545f4c604082015267495155494449545960c01b606082015260800190565b60208082526025908201527f556e697377617056324c6962726172793a20494e56414c49445f464545535f4c60408201526408a9c8ea8960db1b606082015260800190565b60208082526025908201527f556e697377617056324c6962726172793a20494e53554646494349454e545f416040820152641353d5539560da1b606082015260800190565b60208082526027908201527f556e69737761705632526f757465723a204558434553534956455f494e50555460408201526617d05353d5539560ca1b606082015260800190565b60208082526026908201527f556e69737761705632526f757465723a20494e53554646494349454e545f415f604082015265105353d5539560d21b606082015260800190565b6020808252602b908201527f556e69737761705632526f757465723a20494e53554646494349454e545f4f5560408201526a1514155517d05353d5539560aa1b606082015260800190565b6020808252602d908201527f5472616e7366657248656c7065723a3a736166655472616e736665723a20747260408201526c185b9cd9995c8819985a5b1959609a1b606082015260800190565b6020808252601e908201527f556e697377617056324c6962726172793a205a45524f5f414444524553530000604082015260600190565b6020808252602b908201527f556e697377617056324c6962726172793a20494e53554646494349454e545f4960408201526a1394155517d05353d5539560aa1b606082015260800190565b90815260200190565b918252602082015260400190565b600085825284602083015260018060a01b03841660408301526080606083015282518060808401526144a88160a085016020870161451c565b601f01601f19169190910160a00195945050505050565b9283526020830191909152604082015260600190565b60405181810167ffffffffffffffff811182821017156144f457600080fd5b604052919050565b600067ffffffffffffffff821115614512578081fd5b5060209081020190565b60005b8381101561453757818101518382015260200161451f565b83811115614546576000848401525b50505050565b6001600160a01b038116811461456157600080fd5b50565b801515811461456157600080fd5b6001600160701b038116811461456157600080fdfea264697066735822122036b7aae7cc6324239bdc66cd672603dc1bd5f42b02a4cf62e3e0ae286219386264736f6c63430006060033","linkReferences":{}},"methodIdentifiers":{"WETH()":"ad5c4648","addLiquidity(address,address,uint256,uint256,uint256,uint256,uint256,address,uint256)":"426e40b1","addLiquidityETH(address,uint256,uint256,uint256,uint256,address,uint256)":"8d2468e4","factory()":"c45a0155","getAmountIn(uint256,uint256,uint256,uint256)":"571fd012","getAmountOut(uint256,uint256,uint256,uint256)":"52707d8c","getAmountsIn(uint256,address[],uint256[])":"56191a59","getAmountsOut(uint256,address[],uint256[])":"b677fd5c","quote(uint256,uint256,uint256)":"ad615dec","removeLiquidity(address,address,uint256,uint256,uint256,uint256,address,uint256)":"96adb337","removeLiquidityETH(address,uint256,uint256,uint256,uint256,address,uint256)":"ba3690cb","removeLiquidityETHSupportingFeeOnTransferTokens(address,uint256,uint256,uint256,uint256,address,uint256)":"c194f861","removeLiquidityETHWithPermit((address,uint256,uint256,uint256,uint256,address,uint256,bool,uint8,bytes32,bytes32))":"83c54d52","removeLiquidityETHWithPermitSupportingFeeOnTransferTokens(address,uint256,uint256,uint256,uint256,address,uint256,bool,uint8,bytes32,bytes32)":"3cd9979d","removeLiquidityWithPermit((address,address,uint256,uint256,uint256,uint256,address,uint256,bool,uint8,bytes32,bytes32))":"ffa5d80b","swapETHForExactTokens(uint256,address[],uint256[],address,uint256)":"8c005948","swapExactETHForTokens(uint256,address[],uint256[],address,uint256)":"e36dc876","swapExactETHForTokensSupportingFeeOnTransferTokens(uint256,address[],uint256[],address,uint256)":"6fee0fa9","swapExactTokensForETH(uint256,uint256,address[],uint256[],address,uint256)":"851d14f5","swapExactTokensForETHSupportingFeeOnTransferTokens(uint256,uint256,address[],uint256[],address,uint256)":"27ec1eff","swapExactTokensForTokens(uint256,uint256,address[],uint256[],address,uint256)":"e26997dc","swapExactTokensForTokensSupportingFeeOnTransferTokens(uint256,uint256,address[],uint256[],address,uint256)":"27c1169b","swapTokensForExactETH(uint256,uint256,address[],uint256[],address,uint256)":"edb2af1f","swapTokensForExactTokens(uint256,uint256,address[],uint256[],address,uint256)":"55a7cf78"},"id":0}