{"abi":[{"type":"constructor","inputs":[{"name":"_factory","type":"address","internalType":"address"},{"name":"_WETH","type":"address","internalType":"address"}],"stateMutability":"nonpayable"},{"type":"receive","stateMutability":"payable"},{"type":"function","name":"WETH","inputs":[],"outputs":[{"name":"","type":"address","internalType":"address"}],"stateMutability":"view"},{"type":"function","name":"addLiquidity","inputs":[{"name":"tokenA","type":"address","internalType":"address"},{"name":"tokenB","type":"address","internalType":"address"},{"name":"fee","type":"uint256","internalType":"uint256"},{"name":"amountADesired","type":"uint256","internalType":"uint256"},{"name":"amountBDesired","type":"uint256","internalType":"uint256"},{"name":"amountAMin","type":"uint256","internalType":"uint256"},{"name":"amountBMin","type":"uint256","internalType":"uint256"},{"name":"to","type":"address","internalType":"address"},{"name":"deadline","type":"uint256","internalType":"uint256"}],"outputs":[{"name":"amountA","type":"uint256","internalType":"uint256"},{"name":"amountB","type":"uint256","internalType":"uint256"},{"name":"liquidity","type":"uint256","internalType":"uint256"}],"stateMutability":"nonpayable"},{"type":"function","name":"addLiquidityETH","inputs":[{"name":"token","type":"address","internalType":"address"},{"name":"fee","type":"uint256","internalType":"uint256"},{"name":"amountTokenDesired","type":"uint256","internalType":"uint256"},{"name":"amountTokenMin","type":"uint256","internalType":"uint256"},{"name":"amountETHMin","type":"uint256","internalType":"uint256"},{"name":"to","type":"address","internalType":"address"},{"name":"deadline","type":"uint256","internalType":"uint256"}],"outputs":[{"name":"amountToken","type":"uint256","internalType":"uint256"},{"name":"amountETH","type":"uint256","internalType":"uint256"},{"name":"liquidity","type":"uint256","internalType":"uint256"}],"stateMutability":"payable"},{"type":"function","name":"factory","inputs":[],"outputs":[{"name":"","type":"address","internalType":"address"}],"stateMutability":"view"},{"type":"function","name":"getAmountIn","inputs":[{"name":"amountOut","type":"uint256","internalType":"uint256"},{"name":"reserveIn","type":"uint256","internalType":"uint256"},{"name":"reserveOut","type":"uint256","internalType":"uint256"},{"name":"fee","type":"uint256","internalType":"uint256"}],"outputs":[{"name":"amountIn","type":"uint256","internalType":"uint256"}],"stateMutability":"pure"},{"type":"function","name":"getAmountOut","inputs":[{"name":"amountIn","type":"uint256","internalType":"uint256"},{"name":"reserveIn","type":"uint256","internalType":"uint256"},{"name":"reserveOut","type":"uint256","internalType":"uint256"},{"name":"fee","type":"uint256","internalType":"uint256"}],"outputs":[{"name":"amountOut","type":"uint256","internalType":"uint256"}],"stateMutability":"pure"},{"type":"function","name":"getAmountsIn","inputs":[{"name":"amountOut","type":"uint256","internalType":"uint256"},{"name":"path","type":"address[]","internalType":"address[]"},{"name":"fees","type":"uint256[]","internalType":"uint256[]"}],"outputs":[{"name":"amounts","type":"uint256[]","internalType":"uint256[]"}],"stateMutability":"view"},{"type":"function","name":"getAmountsOut","inputs":[{"name":"amountIn","type":"uint256","internalType":"uint256"},{"name":"path","type":"address[]","internalType":"address[]"},{"name":"fees","type":"uint256[]","internalType":"uint256[]"}],"outputs":[{"name":"amounts","type":"uint256[]","internalType":"uint256[]"}],"stateMutability":"view"},{"type":"function","name":"quote","inputs":[{"name":"amountA","type":"uint256","internalType":"uint256"},{"name":"reserveA","type":"uint256","internalType":"uint256"},{"name":"reserveB","type":"uint256","internalType":"uint256"}],"outputs":[{"name":"amountB","type":"uint256","internalType":"uint256"}],"stateMutability":"pure"},{"type":"function","name":"removeLiquidity","inputs":[{"name":"tokenA","type":"address","internalType":"address"},{"name":"tokenB","type":"address","internalType":"address"},{"name":"fee","type":"uint256","internalType":"uint256"},{"name":"liquidity","type":"uint256","internalType":"uint256"},{"name":"amountAMin","type":"uint256","internalType":"uint256"},{"name":"amountBMin","type":"uint256","internalType":"uint256"},{"name":"to","type":"address","internalType":"address"},{"name":"deadline","type":"uint256","internalType":"uint256"}],"outputs":[{"name":"amountA","type":"uint256","internalType":"uint256"},{"name":"amountB","type":"uint256","internalType":"uint256"}],"stateMutability":"nonpayable"},{"type":"function","name":"removeLiquidityETH","inputs":[{"name":"token","type":"address","internalType":"address"},{"name":"fee","type":"uint256","internalType":"uint256"},{"name":"liquidity","type":"uint256","internalType":"uint256"},{"name":"amountTokenMin","type":"uint256","internalType":"uint256"},{"name":"amountETHMin","type":"uint256","internalType":"uint256"},{"name":"to","type":"address","internalType":"address"},{"name":"deadline","type":"uint256","internalType":"uint256"}],"outputs":[{"name":"amountToken","type":"uint256","internalType":"uint256"},{"name":"amountETH","type":"uint256","internalType":"uint256"}],"stateMutability":"nonpayable"},{"type":"function","name":"removeLiquidityETHWithPermit","inputs":[{"name":"params","type":"tuple","internalType":"struct RemoveLiquidityETHParams","components":[{"name":"token","type":"address","internalType":"address"},{"name":"fee","type":"uint256","internalType":"uint256"},{"name":"liquidity","type":"uint256","internalType":"uint256"},{"name":"amountTokenMin","type":"uint256","internalType":"uint256"},{"name":"amountETHMin","type":"uint256","internalType":"uint256"},{"name":"to","type":"address","internalType":"address"},{"name":"deadline","type":"uint256","internalType":"uint256"},{"name":"approveMax","type":"bool","internalType":"bool"},{"name":"v","type":"uint8","internalType":"uint8"},{"name":"r","type":"bytes32","internalType":"bytes32"},{"name":"s","type":"bytes32","internalType":"bytes32"}]}],"outputs":[{"name":"amountToken","type":"uint256","internalType":"uint256"},{"name":"amountETH","type":"uint256","internalType":"uint256"}],"stateMutability":"nonpayable"},{"type":"function","name":"removeLiquidityWithPermit","inputs":[{"name":"params","type":"tuple","internalType":"struct RemoveLiquidityParams","components":[{"name":"tokenA","type":"address","internalType":"address"},{"name":"tokenB","type":"address","internalType":"address"},{"name":"fee","type":"uint256","internalType":"uint256"},{"name":"liquidity","type":"uint256","internalType":"uint256"},{"name":"amountAMin","type":"uint256","internalType":"uint256"},{"name":"amountBMin","type":"uint256","internalType":"uint256"},{"name":"to","type":"address","internalType":"address"},{"name":"deadline","type":"uint256","internalType":"uint256"},{"name":"approveMax","type":"bool","internalType":"bool"},{"name":"v","type":"uint8","internalType":"uint8"},{"name":"r","type":"bytes32","internalType":"bytes32"},{"name":"s","type":"bytes32","internalType":"bytes32"}]}],"outputs":[{"name":"amountA","type":"uint256","internalType":"uint256"},{"name":"amountB","type":"uint256","internalType":"uint256"}],"stateMutability":"nonpayable"},{"type":"function","name":"swapETHForExactTokens","inputs":[{"name":"amountOut","type":"uint256","internalType":"uint256"},{"name":"path","type":"address[]","internalType":"address[]"},{"name":"fees","type":"uint256[]","internalType":"uint256[]"},{"name":"to","type":"address","internalType":"address"},{"name":"deadline","type":"uint256","internalType":"uint256"}],"outputs":[{"name":"amounts","type":"uint256[]","internalType":"uint256[]"}],"stateMutability":"payable"},{"type":"function","name":"swapExactETHForTokens","inputs":[{"name":"amountOutMin","type":"uint256","internalType":"uint256"},{"name":"path","type":"address[]","internalType":"address[]"},{"name":"fees","type":"uint256[]","internalType":"uint256[]"},{"name":"to","type":"address","internalType":"address"},{"name":"deadline","type":"uint256","internalType":"uint256"}],"outputs":[{"name":"amounts","type":"uint256[]","internalType":"uint256[]"}],"stateMutability":"payable"},{"type":"function","name":"swapExactTokensForETH","inputs":[{"name":"amountIn","type":"uint256","internalType":"uint256"},{"name":"amountOutMin","type":"uint256","internalType":"uint256"},{"name":"path","type":"address[]","internalType":"address[]"},{"name":"fees","type":"uint256[]","internalType":"uint256[]"},{"name":"to","type":"address","internalType":"address"},{"name":"deadline","type":"uint256","internalType":"uint256"}],"outputs":[{"name":"amounts","type":"uint256[]","internalType":"uint256[]"}],"stateMutability":"nonpayable"},{"type":"function","name":"swapExactTokensForTokens","inputs":[{"name":"amountIn","type":"uint256","internalType":"uint256"},{"name":"amountOutMin","type":"uint256","internalType":"uint256"},{"name":"path","type":"address[]","internalType":"address[]"},{"name":"fees","type":"uint256[]","internalType":"uint256[]"},{"name":"to","type":"address","internalType":"address"},{"name":"deadline","type":"uint256","internalType":"uint256"}],"outputs":[{"name":"amounts","type":"uint256[]","internalType":"uint256[]"}],"stateMutability":"nonpayable"},{"type":"function","name":"swapTokensForExactETH","inputs":[{"name":"amountOut","type":"uint256","internalType":"uint256"},{"name":"amountInMax","type":"uint256","internalType":"uint256"},{"name":"path","type":"address[]","internalType":"address[]"},{"name":"fees","type":"uint256[]","internalType":"uint256[]"},{"name":"to","type":"address","internalType":"address"},{"name":"deadline","type":"uint256","internalType":"uint256"}],"outputs":[{"name":"amounts","type":"uint256[]","internalType":"uint256[]"}],"stateMutability":"nonpayable"},{"type":"function","name":"swapTokensForExactTokens","inputs":[{"name":"amountOut","type":"uint256","internalType":"uint256"},{"name":"amountInMax","type":"uint256","internalType":"uint256"},{"name":"path","type":"address[]","internalType":"address[]"},{"name":"fees","type":"uint256[]","internalType":"uint256[]"},{"name":"to","type":"address","internalType":"address"},{"name":"deadline","type":"uint256","internalType":"uint256"}],"outputs":[{"name":"amounts","type":"uint256[]","internalType":"uint256[]"}],"stateMutability":"nonpayable"}],"bytecode":{"object":"0x60c06040523480156200001157600080fd5b506040516200389638038062003896833981016040819052620000349162000053565b6001600160601b0319606092831b8116608052911b1660a052620000aa565b6000806040838503121562000066578182fd5b8251620000738162000091565b6020840151909250620000868162000091565b809150509250929050565b6001600160a01b0381168114620000a757600080fd5b50565b60805160601c60a05160601c6137046200019260003980610128528061076c52806108c05280610a755280610b4e5280610c855280610d0d5280610f1d5280610f745280610fa9528061102f528061134b52806113d2528061142352806115d5528061170f5280611797528061191c5250806103f0528061050152806105ec5280610706528061073e52806109305280610bc35280610d3f5280610f52528061118f528061138152806114a352806114ed528061164a52806117c9528061198c5280611a555280611bb45280611c695280611cfc5280612221528061227b52506137046000f3fe6080604052600436106101185760003560e01c806396adb337116100a0578063c45a015511610064578063c45a01551461031e578063e26997dc14610333578063e36dc87614610353578063edb2af1f14610366578063ffa5d80b1461038657610151565b806396adb3371461027c578063ad5c46481461029c578063ad615dec146102be578063b677fd5c146102de578063ba3690cb146102fe57610151565b8063571fd012116100e7578063571fd0121461018e57806383c54d5214610208578063851d14f5146102365780638c005948146102565780638d2468e41461026957610151565b8063426e40b11461015657806352707d8c1461018e57806355a7cf78146101bb57806356191a59146101e857610151565b3661015157336001600160a01b037f0000000000000000000000000000000000000000000000000000000000000000161461014f57fe5b005b600080fd5b34801561016257600080fd5b50610176610171366004612a94565b6103a6565b60405161018593929190613606565b60405180910390f35b34801561019a57600080fd5b506101ae6101a9366004612e98565b6104c2565b604051610185919061359f565b3480156101c757600080fd5b506101db6101d6366004612dd0565b6104d9565b6040516101859190613036565b3480156101f457600080fd5b506101db610203366004612ce3565b6106ff565b34801561021457600080fd5b50610228610223366004612bb9565b610735565b6040516101859291906135a8565b34801561024257600080fd5b506101db610251366004612dd0565b610893565b6101db610264366004612c4f565b610b29565b610176610277366004612b19565b610ef1565b34801561028857600080fd5b50610228610297366004612a19565b611164565b3480156102a857600080fd5b506102b1611349565b6040516101859190612f8a565b3480156102ca57600080fd5b506101ae6102d9366004612e6d565b61136d565b3480156102ea57600080fd5b506101db6102f9366004612ce3565b61137a565b34801561030a57600080fd5b50610228610319366004612b19565b6113a8565b34801561032a57600080fd5b506102b16114a1565b34801561033f57600080fd5b506101db61034e366004612dd0565b6114c5565b6101db610361366004612c4f565b6115b0565b34801561037257600080fd5b506101db610381366004612dd0565b6118ef565b34801561039257600080fd5b506102286103a1366004612bd1565b611a4c565b600080600083428110156103d55760405162461bcd60e51b81526004016103cc906130a9565b60405180910390fd5b6103e48d8d8d8d8d8d8d611b9e565b909450925060006104177f00000000000000000000000000000000000000000000000000000000000000008f8f8f611dd5565b90506104258e338388611e48565b6104318d338387611e48565b6040516335313c2160e11b81526001600160a01b03821690636a6278429061045d908a90600401612f8a565b602060405180830381600087803b15801561047757600080fd5b505af115801561048b573d6000803e3d6000fd5b505050506040513d601f19601f820116820180604052508101906104af9190612c37565b9250505099509950999650505050505050565b60006104d085858585611f39565b95945050505050565b606081428110156104fc5760405162461bcd60e51b81526004016103cc906130a9565b61058b7f00000000000000000000000000000000000000000000000000000000000000008b8a8a8080602002602001604051908101604052809392919081815260200183836020028082843760009201919091525050604080516020808e0282810182019093528d82529093508d92508c918291850190849080828437600092019190915250611fef92505050565b9150888260008151811061059b57fe5b602002602001015111156105c15760405162461bcd60e51b81526004016103cc906133f8565b610682888860008181106105d157fe5b90506020020160208101906105e691906129da565b336106687f00000000000000000000000000000000000000000000000000000000000000008c8c600081811061061857fe5b905060200201602081019061062d91906129da565b8d8d600181811061063a57fe5b905060200201602081019061064f91906129da565b8c8c600081811061065c57fe5b90506020020135611dd5565b8560008151811061067557fe5b6020026020010151611e48565b6106f28289898080602002602001604051908101604052809392919081815260200183836020028082843760009201919091525050604080516020808d0282810182019093528c82529093508c92508b9182918501908490808284376000920191909152508a925061215a915050565b5098975050505050505050565b606061072d7f0000000000000000000000000000000000000000000000000000000000000000858585611fef565b949350505050565b600080806107957f000000000000000000000000000000000000000000000000000000000000000061076a60208701876129da565b7f00000000000000000000000000000000000000000000000000000000000000008760200135611dd5565b905060006107aa610100860160e08701612b81565b6107b85784604001356107bc565b6000195b90506001600160a01b03821663d505accf33308460c08a01356107e76101208c016101008d01612ec9565b8b61012001358c61014001356040518863ffffffff1660e01b81526004016108159796959493929190612f9e565b600060405180830381600087803b15801561082f57600080fd5b505af1158015610843573d6000803e3d6000fd5b50610887925061085991505060208701876129da565b60208701356040880135606089013560808a013561087d60c08c0160a08d016129da565b8b60c001356113a8565b90969095509350505050565b606081428110156108b65760405162461bcd60e51b81526004016103cc906130a9565b6001600160a01b037f000000000000000000000000000000000000000000000000000000000000000016888860001981018181106108f057fe5b905060200201602081019061090591906129da565b6001600160a01b03161461092b5760405162461bcd60e51b81526004016103cc906132b8565b6109ba7f00000000000000000000000000000000000000000000000000000000000000008b8a8a8080602002602001604051908101604052809392919081815260200183836020028082843760009201919091525050604080516020808e0282810182019093528d82529093508d92508c91829185019084908082843760009201919091525061234c92505050565b915088826001845103815181106109cd57fe5b602002602001015110156109f35760405162461bcd60e51b81526004016103cc90613485565b610a03888860008181106105d157fe5b610a738289898080602002602001604051908101604052809392919081815260200183836020028082843760009201919091525050604080516020808d0282810182019093528c82529093508c92508b91829185019084908082843760009201919091525030925061215a915050565b7f00000000000000000000000000000000000000000000000000000000000000006001600160a01b0316632e1a7d4d83600185510381518110610ab257fe5b60200260200101516040518263ffffffff1660e01b8152600401610ad6919061359f565b600060405180830381600087803b158015610af057600080fd5b505af1158015610b04573d6000803e3d6000fd5b505050506106f28483600185510381518110610b1c57fe5b602002602001015161249a565b60608142811015610b4c5760405162461bcd60e51b81526004016103cc906130a9565b7f00000000000000000000000000000000000000000000000000000000000000006001600160a01b031688886000818110610b8357fe5b9050602002016020810190610b9891906129da565b6001600160a01b031614610bbe5760405162461bcd60e51b81526004016103cc906132b8565b610c4d7f00000000000000000000000000000000000000000000000000000000000000008a8a8a8080602002602001604051908101604052809392919081815260200183836020028082843760009201919091525050604080516020808e0282810182019093528d82529093508d92508c918291850190849080828437600092019190915250611fef92505050565b91503482600081518110610c5d57fe5b60200260200101511115610c835760405162461bcd60e51b81526004016103cc906133f8565b7f00000000000000000000000000000000000000000000000000000000000000006001600160a01b031663d0e30db083600081518110610cbf57fe5b60200260200101516040518263ffffffff1660e01b81526004016000604051808303818588803b158015610cf257600080fd5b505af1158015610d06573d6000803e3d6000fd5b50505050507f00000000000000000000000000000000000000000000000000000000000000006001600160a01b031663a9059cbb610daf7f00000000000000000000000000000000000000000000000000000000000000008b8b6000818110610d6b57fe5b9050602002016020810190610d8091906129da565b8c8c6001818110610d8d57fe5b9050602002016020810190610da291906129da565b8b8b600081811061065c57fe5b84600081518110610dbc57fe5b60200260200101516040518363ffffffff1660e01b8152600401610de192919061301d565b602060405180830381600087803b158015610dfb57600080fd5b505af1158015610e0f573d6000803e3d6000fd5b505050506040513d601f19601f82011682018060405250810190610e339190612b9d565b610e3957fe5b610ea98289898080602002602001604051908101604052809392919081815260200183836020028082843760009201919091525050604080516020808d0282810182019093528c82529093508c92508b9182918501908490808284376000920191909152508a925061215a915050565b81600081518110610eb657fe5b6020026020010151341115610ee557610ee53383600081518110610ed657fe5b6020026020010151340361249a565b50979650505050505050565b60008060008342811015610f175760405162461bcd60e51b81526004016103cc906130a9565b610f468b7f00000000000000000000000000000000000000000000000000000000000000008c8c348d8d611b9e565b90945092506000610f997f00000000000000000000000000000000000000000000000000000000000000008d7f00000000000000000000000000000000000000000000000000000000000000008e611dd5565b9050610fa78c338388611e48565b7f00000000000000000000000000000000000000000000000000000000000000006001600160a01b031663d0e30db0856040518263ffffffff1660e01b81526004016000604051808303818588803b15801561100257600080fd5b505af1158015611016573d6000803e3d6000fd5b505060405163a9059cbb60e01b81526001600160a01b037f000000000000000000000000000000000000000000000000000000000000000016935063a9059cbb925061106991508490889060040161301d565b602060405180830381600087803b15801561108357600080fd5b505af1158015611097573d6000803e3d6000fd5b505050506040513d601f19601f820116820180604052508101906110bb9190612b9d565b6110c157fe5b6040516335313c2160e11b81526001600160a01b03821690636a627842906110ed908a90600401612f8a565b602060405180830381600087803b15801561110757600080fd5b505af115801561111b573d6000803e3d6000fd5b505050506040513d601f19601f8201168201806040525081019061113f9190612c37565b925083341115611155576111553385340361249a565b50509750975097945050505050565b60008082428110156111885760405162461bcd60e51b81526004016103cc906130a9565b60006111b67f00000000000000000000000000000000000000000000000000000000000000008d8d8d611dd5565b6040516323b872dd60e01b81529091506001600160a01b038216906323b872dd906111e990339085908e90600401612fdf565b602060405180830381600087803b15801561120357600080fd5b505af1158015611217573d6000803e3d6000fd5b505050506040513d601f19601f8201168201806040525081019061123b9190612b9d565b50600080826001600160a01b03166389afcb44896040518263ffffffff1660e01b815260040161126b9190612f8a565b6040805180830381600087803b15801561128457600080fd5b505af1158015611298573d6000803e3d6000fd5b505050506040513d601f19601f820116820180604052508101906112bc9190612dad565b9150915060006112cc8f8f61252c565b509050806001600160a01b03168f6001600160a01b0316146112ef5781836112f2565b82825b90975095508a8710156113175760405162461bcd60e51b81526004016103cc9061343f565b898610156113375760405162461bcd60e51b81526004016103cc90613272565b50505050509850989650505050505050565b7f000000000000000000000000000000000000000000000000000000000000000081565b600061072d8484846125b6565b606061072d7f000000000000000000000000000000000000000000000000000000000000000085858561234c565b60008082428110156113cc5760405162461bcd60e51b81526004016103cc906130a9565b6113fc8a7f00000000000000000000000000000000000000000000000000000000000000008b8b8b8b308b611164565b909350915061140c8a8685612624565b604051632e1a7d4d60e01b81526001600160a01b037f00000000000000000000000000000000000000000000000000000000000000001690632e1a7d4d9061145890859060040161359f565b600060405180830381600087803b15801561147257600080fd5b505af1158015611486573d6000803e3d6000fd5b50505050611494858361249a565b5097509795505050505050565b7f000000000000000000000000000000000000000000000000000000000000000081565b606081428110156114e85760405162461bcd60e51b81526004016103cc906130a9565b6115777f00000000000000000000000000000000000000000000000000000000000000008b8a8a8080602002602001604051908101604052809392919081815260200183836020028082843760009201919091525050604080516020808e0282810182019093528d82529093508d92508c91829185019084908082843760009201919091525061234c92505050565b9150888260018451038151811061158a57fe5b602002602001015110156105c15760405162461bcd60e51b81526004016103cc90613485565b606081428110156115d35760405162461bcd60e51b81526004016103cc906130a9565b7f00000000000000000000000000000000000000000000000000000000000000006001600160a01b03168888600081811061160a57fe5b905060200201602081019061161f91906129da565b6001600160a01b0316146116455760405162461bcd60e51b81526004016103cc906132b8565b6116d47f0000000000000000000000000000000000000000000000000000000000000000348a8a8080602002602001604051908101604052809392919081815260200183836020028082843760009201919091525050604080516020808e0282810182019093528d82529093508d92508c91829185019084908082843760009201919091525061234c92505050565b915088826001845103815181106116e757fe5b6020026020010151101561170d5760405162461bcd60e51b81526004016103cc90613485565b7f00000000000000000000000000000000000000000000000000000000000000006001600160a01b031663d0e30db08360008151811061174957fe5b60200260200101516040518263ffffffff1660e01b81526004016000604051808303818588803b15801561177c57600080fd5b505af1158015611790573d6000803e3d6000fd5b50505050507f00000000000000000000000000000000000000000000000000000000000000006001600160a01b031663a9059cbb6117f57f00000000000000000000000000000000000000000000000000000000000000008b8b6000818110610d6b57fe5b8460008151811061180257fe5b60200260200101516040518363ffffffff1660e01b815260040161182792919061301d565b602060405180830381600087803b15801561184157600080fd5b505af1158015611855573d6000803e3d6000fd5b505050506040513d601f19601f820116820180604052508101906118799190612b9d565b61187f57fe5b610ee58289898080602002602001604051908101604052809392919081815260200183836020028082843760009201919091525050604080516020808d0282810182019093528c82529093508c92508b9182918501908490808284376000920191909152508a925061215a915050565b606081428110156119125760405162461bcd60e51b81526004016103cc906130a9565b6001600160a01b037f0000000000000000000000000000000000000000000000000000000000000000168888600019810181811061194c57fe5b905060200201602081019061196191906129da565b6001600160a01b0316146119875760405162461bcd60e51b81526004016103cc906132b8565b611a167f00000000000000000000000000000000000000000000000000000000000000008b8a8a8080602002602001604051908101604052809392919081815260200183836020028082843760009201919091525050604080516020808e0282810182019093528d82529093508d92508c918291850190849080828437600092019190915250611fef92505050565b91508882600081518110611a2657fe5b602002602001015111156109f35760405162461bcd60e51b81526004016103cc906133f8565b60008080611a9b7f0000000000000000000000000000000000000000000000000000000000000000611a8160208701876129da565b611a9160408801602089016129da565b8760400135611dd5565b90506000611ab161012086016101008701612b81565b611abf578460600135611ac3565b6000195b90506001600160a01b03821663d505accf33308460e08a0135611aee6101408c016101208d01612ec9565b8b61014001358c61016001356040518863ffffffff1660e01b8152600401611b1c9796959493929190612f9e565b600060405180830381600087803b158015611b3657600080fd5b505af1158015611b4a573d6000803e3d6000fd5b506108879250611b6091505060208701876129da565b611b7060408801602089016129da565b6040880135606089013560808a013560a08b0135611b9460e08d0160c08e016129da565b8c60e00135611164565b60405163e6a4390560e01b8152600090819081907f00000000000000000000000000000000000000000000000000000000000000006001600160a01b03169063e6a4390590611bf3908d908d90600401613003565b60206040518083038186803b158015611c0b57600080fd5b505afa158015611c1f573d6000803e3d6000fd5b505050506040513d601f19601f82011682018060405250810190611c4391906129fd565b6001600160a01b03161415611cf4576040516364e329cb60e11b81526001600160a01b037f0000000000000000000000000000000000000000000000000000000000000000169063c9c6539690611ca0908c908c90600401613003565b602060405180830381600087803b158015611cba57600080fd5b505af1158015611cce573d6000803e3d6000fd5b505050506040513d601f19601f82011682018060405250810190611cf291906129fd565b505b600080611d237f00000000000000000000000000000000000000000000000000000000000000008c8c8c61270b565b91509150816000148015611d35575080155b15611d4557879350869250611dc7565b6000611d528984846125b6565b9050878111611d865785811015611d7b5760405162461bcd60e51b81526004016103cc90613272565b889450925082611dc5565b6000611d938984866125b6565b905089811115611d9f57fe5b87811015611dbf5760405162461bcd60e51b81526004016103cc9061343f565b94508793505b505b505097509795505050505050565b6000806000611de4868661252c565b9150915086828286604051602001611dfe93929190612eea565b60405160208183030381529060405280519060200120604051602001611e25929190612f34565b60408051601f198184030181529190528051602090910120979650505050505050565b60006060856001600160a01b03166323b872dd868686604051602401611e7093929190612fdf565b6040516020818303038152906040529060e01b6020820180516001600160e01b038381831617835250505050604051611ea99190612f18565b6000604051808303816000865af19150503d8060008114611ee6576040519150601f19603f3d011682016040523d82523d6000602084013e611eeb565b606091505b5091509150818015611f15575080511580611f15575080806020019051810190611f159190612b9d565b611f315760405162461bcd60e51b81526004016103cc90613188565b505050505050565b6000808511611f5a5760405162461bcd60e51b81526004016103cc90613554565b600084118015611f6a5750600083115b611f865760405162461bcd60e51b81526004016103cc90613326565b6000611f9d8661271085900363ffffffff6127e616565b90506000611fb1828663ffffffff6127e616565b90506000611fd783611fcb8961271063ffffffff6127e616565b9063ffffffff61282316565b9050808281611fe257fe5b0498975050505050505050565b60606002835110156120135760405162461bcd60e51b81526004016103cc906132ef565b81516001018351146120375760405162461bcd60e51b81526004016103cc9061336e565b825167ffffffffffffffff8111801561204f57600080fd5b50604051908082528060200260200182016040528015612079578160200160208202803683370190505b509050838160018351038151811061208d57fe5b60209081029190910101528251600019015b8015612151576000806120f3888760018603815181106120bb57fe5b60200260200101518886815181106120cf57fe5b60200260200101518860018803815181106120e657fe5b602002602001015161270b565b9150915061212c84848151811061210657fe5b6020026020010151838388600188038151811061211f57fe5b6020026020010151612846565b84600185038151811061213b57fe5b602090810291909101015250506000190161209f565b50949350505050565b60005b600184510381101561234557600080600086848151811061217a57fe5b602002602001015187856001018151811061219157fe5b60200260200101518786815181106121a557fe5b602002602001015192509250925060006121bf848461252c565b50905060008986600101815181106121d357fe5b60200260200101519050600080836001600160a01b0316876001600160a01b03161461220157826000612205565b6000835b91509150600060028c5103891061221c5789612274565b6122747f0000000000000000000000000000000000000000000000000000000000000000888e8c6002018151811061225057fe5b60200260200101518e8d6001018151811061226757fe5b6020026020010151611dd5565b90506122a27f0000000000000000000000000000000000000000000000000000000000000000898989611dd5565b6001600160a01b031663022c0d9f84848460006040519080825280601f01601f1916602001820160405280156122df576020820181803683370190505b506040518563ffffffff1660e01b81526004016122ff94939291906135b6565b600060405180830381600087803b15801561231957600080fd5b505af115801561232d573d6000803e3d6000fd5b50506001909a01995061215d98505050505050505050565b5050505050565b60606002835110156123705760405162461bcd60e51b81526004016103cc906132ef565b81516001018351146123945760405162461bcd60e51b81526004016103cc9061336e565b825167ffffffffffffffff811180156123ac57600080fd5b506040519080825280602002602001820160405280156123d6578160200160208202803683370190505b50905083816000815181106123e757fe5b60200260200101818152505060005b6001845103811015612151576000806124408887858151811061241557fe5b602002602001015188866001018151811061242c57fe5b60200260200101518887815181106120e657fe5b9150915061247684848151811061245357fe5b6020026020010151838388878151811061246957fe5b6020026020010151611f39565b84846001018151811061248557fe5b602090810291909101015250506001016123f6565b604080516000808252602082019092526001600160a01b0384169083906040516124c49190612f18565b60006040518083038185875af1925050503d8060008114612501576040519150601f19603f3d011682016040523d82523d6000602084013e612506565b606091505b50509050806125275760405162461bcd60e51b81526004016103cc906131d9565b505050565b600080826001600160a01b0316846001600160a01b031614156125615760405162461bcd60e51b81526004016103cc9061322d565b826001600160a01b0316846001600160a01b031610612581578284612584565b83835b90925090506001600160a01b0382166125af5760405162461bcd60e51b81526004016103cc9061351d565b9250929050565b60008084116125d75760405162461bcd60e51b81526004016103cc906133b3565b6000831180156125e75750600082115b6126035760405162461bcd60e51b81526004016103cc90613326565b82612614858463ffffffff6127e616565b8161261b57fe5b04949350505050565b60006060846001600160a01b031663a9059cbb858560405160240161264a92919061301d565b6040516020818303038152906040529060e01b6020820180516001600160e01b0383818316178352505050506040516126839190612f18565b6000604051808303816000865af19150503d80600081146126c0576040519150601f19603f3d011682016040523d82523d6000602084013e6126c5565b606091505b50915091508180156126ef5750805115806126ef5750808060200190518101906126ef9190612b9d565b6123455760405162461bcd60e51b81526004016103cc906134d0565b600080600061271a868661252c565b50905060008061272c89898989611dd5565b6001600160a01b0316630902f1ac6040518163ffffffff1660e01b815260040160606040518083038186803b15801561276457600080fd5b505afa158015612778573d6000803e3d6000fd5b505050506040513d601f19601f8201168201806040525081019061279c9190612be3565b506001600160701b031691506001600160701b03169150826001600160a01b0316886001600160a01b0316146127d35780826127d6565b81815b909a909950975050505050505050565b6000811580612801575050808202828282816127fe57fe5b04145b61281d5760405162461bcd60e51b81526004016103cc906130e0565b92915050565b8082018281101561281d5760405162461bcd60e51b81526004016103cc9061315a565b60008085116128675760405162461bcd60e51b81526004016103cc9061310e565b6000841180156128775750600083115b6128935760405162461bcd60e51b81526004016103cc90613326565b60006128b76127106128ab878963ffffffff6127e616565b9063ffffffff6127e616565b905060006128d46127108590036128ab878a63ffffffff6128fc16565b90506128f160018284816128e457fe5b049063ffffffff61282316565b979650505050505050565b8082038281111561281d5760405162461bcd60e51b81526004016103cc9061307a565b803561281d81613693565b60008083601f84011261293b578182fd5b50813567ffffffffffffffff811115612952578182fd5b60208301915083602080830285010111156125af57600080fd5b600082601f83011261297c578081fd5b813561298f61298a82613643565b61361c565b8181529150602080830190848101818402860182018710156129b057600080fd5b60005b848110156129cf578135845292820192908201906001016129b3565b505050505092915050565b6000602082840312156129eb578081fd5b81356129f681613693565b9392505050565b600060208284031215612a0e578081fd5b81516129f681613693565b600080600080600080600080610100898b031215612a35578384fd5b8835612a4081613693565b97506020890135612a5081613693565b965060408901359550606089013594506080890135935060a0890135925060c0890135612a7c81613693565b8092505060e089013590509295985092959890939650565b60008060008060008060008060006101208a8c031215612ab2578081fd5b8935612abd81613693565b985060208a0135612acd81613693565b975060408a0135965060608a0135955060808a0135945060a08a0135935060c08a0135925060e08a0135612b0081613693565b809250506101008a013590509295985092959850929598565b600080600080600080600060e0888a031215612b33578283fd5b8735612b3e81613693565b96506020880135955060408801359450606088013593506080880135925060a0880135612b6a81613693565b8092505060c0880135905092959891949750929550565b600060208284031215612b92578081fd5b81356129f6816136ab565b600060208284031215612bae578081fd5b81516129f6816136ab565b60006101608284031215612bcb578081fd5b50919050565b60006101808284031215612bcb578081fd5b600080600060608486031215612bf7578081fd5b8351612c02816136b9565b6020850151909350612c13816136b9565b604085015190925063ffffffff81168114612c2c578182fd5b809150509250925092565b600060208284031215612c48578081fd5b5051919050565b600080600080600080600060a0888a031215612c69578081fd5b87359650602088013567ffffffffffffffff80821115612c87578283fd5b612c938b838c0161292a565b909850965060408a0135915080821115612cab578283fd5b50612cb88a828b0161292a565b9095509350506060880135612ccc81613693565b809250506080880135905092959891949750929550565b600080600060608486031215612cf7578081fd5b8335925060208085013567ffffffffffffffff80821115612d16578384fd5b81870188601f820112612d27578485fd5b80359250612d3761298a84613643565b83815284810190828601868602840187018c1015612d53578788fd5b8793505b85841015612d7d57612d698c8261291f565b835260019390930192918601918601612d57565b50965050506040870135925080831115612d95578384fd5b5050612da38682870161296c565b9150509250925092565b60008060408385031215612dbf578182fd5b505080516020909101519092909150565b60008060008060008060008060c0898b031215612deb578182fd5b8835975060208901359650604089013567ffffffffffffffff80821115612e10578384fd5b612e1c8c838d0161292a565b909850965060608b0135915080821115612e34578384fd5b50612e418b828c0161292a565b9095509350506080890135612e5581613693565b8092505060a089013590509295985092959890939650565b600080600060608486031215612e81578081fd5b505081359360208301359350604090920135919050565b60008060008060808587031215612ead578182fd5b5050823594602084013594506040840135936060013592509050565b600060208284031215612eda578081fd5b813560ff811681146129f6578182fd5b6bffffffffffffffffffffffff19606094851b811682529290931b9091166014830152602882015260480190565b60008251612f2a818460208701613663565b9190910192915050565b6001600160f81b0319815260609290921b6bffffffffffffffffffffffff1916600183015260158201527f67a372377cf6d7f78cfdcc9df0bc21e1139bd49e5a47c33ee0de5389a4396410603582015260550190565b6001600160a01b0391909116815260200190565b6001600160a01b0397881681529590961660208601526040850193909352606084019190915260ff16608083015260a082015260c081019190915260e00190565b6001600160a01b039384168152919092166020820152604081019190915260600190565b6001600160a01b0392831681529116602082015260400190565b6001600160a01b03929092168252602082015260400190565b6020808252825182820181905260009190848201906040850190845b8181101561306e57835183529284019291840191600101613052565b50909695505050505050565b60208082526015908201527464732d6d6174682d7375622d756e646572666c6f7760581b604082015260600190565b60208082526018908201527f556e69737761705632526f757465723a20455850495245440000000000000000604082015260600190565b60208082526014908201527364732d6d6174682d6d756c2d6f766572666c6f7760601b604082015260600190565b6020808252602c908201527f556e697377617056324c6962726172793a20494e53554646494349454e545f4f60408201526b155514155517d05353d5539560a21b606082015260800190565b60208082526014908201527364732d6d6174682d6164642d6f766572666c6f7760601b604082015260600190565b60208082526031908201527f5472616e7366657248656c7065723a3a7472616e7366657246726f6d3a207472604082015270185b9cd9995c919c9bdb4819985a5b1959607a1b606082015260800190565b60208082526034908201527f5472616e7366657248656c7065723a3a736166655472616e736665724554483a60408201527308115512081d1c985b9cd9995c8819985a5b195960621b606082015260800190565b60208082526025908201527f556e697377617056324c6962726172793a204944454e544943414c5f41444452604082015264455353455360d81b606082015260800190565b60208082526026908201527f556e69737761705632526f757465723a20494e53554646494349454e545f425f604082015265105353d5539560d21b606082015260800190565b6020808252601d908201527f556e69737761705632526f757465723a20494e56414c49445f50415448000000604082015260600190565b6020808252601e908201527f556e697377617056324c6962726172793a20494e56414c49445f504154480000604082015260600190565b60208082526028908201527f556e697377617056324c6962726172793a20494e53554646494349454e545f4c604082015267495155494449545960c01b606082015260800190565b60208082526025908201527f556e697377617056324c6962726172793a20494e56414c49445f464545535f4c60408201526408a9c8ea8960db1b606082015260800190565b60208082526025908201527f556e697377617056324c6962726172793a20494e53554646494349454e545f416040820152641353d5539560da1b606082015260800190565b60208082526027908201527f556e69737761705632526f757465723a204558434553534956455f494e50555460408201526617d05353d5539560ca1b606082015260800190565b60208082526026908201527f556e69737761705632526f757465723a20494e53554646494349454e545f415f604082015265105353d5539560d21b606082015260800190565b6020808252602b908201527f556e69737761705632526f757465723a20494e53554646494349454e545f4f5560408201526a1514155517d05353d5539560aa1b606082015260800190565b6020808252602d908201527f5472616e7366657248656c7065723a3a736166655472616e736665723a20747260408201526c185b9cd9995c8819985a5b1959609a1b606082015260800190565b6020808252601e908201527f556e697377617056324c6962726172793a205a45524f5f414444524553530000604082015260600190565b6020808252602b908201527f556e697377617056324c6962726172793a20494e53554646494349454e545f4960408201526a1394155517d05353d5539560aa1b606082015260800190565b90815260200190565b918252602082015260400190565b600085825284602083015260018060a01b03841660408301526080606083015282518060808401526135ef8160a0850160208701613663565b601f01601f19169190910160a00195945050505050565b9283526020830191909152604082015260600190565b60405181810167ffffffffffffffff8111828210171561363b57600080fd5b604052919050565b600067ffffffffffffffff821115613659578081fd5b5060209081020190565b60005b8381101561367e578181015183820152602001613666565b8381111561368d576000848401525b50505050565b6001600160a01b03811681146136a857600080fd5b50565b80151581146136a857600080fd5b6001600160701b03811681146136a857600080fdfea26469706673582212208a85b8fabe10da7b4e66242e9a991d97d26150256bb3895902eeef8caa2b52e464736f6c63430006060033","linkReferences":{}},"methodIdentifiers":{"WETH()":"ad5c4648","addLiquidity(address,address,uint256,uint256,uint256,uint256,uint256,address,uint256)":"426e40b1","addLiquidityETH(address,uint256,uint256,uint256,uint256,address,uint256)":"8d2468e4","factory()":"c45a0155","getAmountIn(uint256,uint256,uint256,uint256)":"571fd012","getAmountOut(uint256,uint256,uint256,uint256)":"52707d8c","getAmountsIn(uint256,address[],uint256[])":"56191a59","getAmountsOut(uint256,address[],uint256[])":"b677fd5c","quote(uint256,uint256,uint256)":"ad615dec","removeLiquidity(address,address,uint256,uint256,uint256,uint256,address,uint256)":"96adb337","removeLiquidityETH(address,uint256,uint256,uint256,uint256,address,uint256)":"ba3690cb","removeLiquidityETHWithPermit((address,uint256,uint256,uint256,uint256,address,uint256,bool,uint8,bytes32,bytes32))":"83c54d52","removeLiquidityWithPermit((address,address,uint256,uint256,uint256,uint256,address,uint256,bool,uint8,bytes32,bytes32))":"ffa5d80b","swapETHForExactTokens(uint256,address[],uint256[],address,uint256)":"8c005948","swapExactETHForTokens(uint256,address[],uint256[],address,uint256)":"e36dc876","swapExactTokensForETH(uint256,uint256,address[],uint256[],address,uint256)":"851d14f5","swapExactTokensForTokens(uint256,uint256,address[],uint256[],address,uint256)":"e26997dc","swapTokensForExactETH(uint256,uint256,address[],uint256[],address,uint256)":"edb2af1f","swapTokensForExactTokens(uint256,uint256,address[],uint256[],address,uint256)":"55a7cf78"},"id":1}