{"abi":[{"type":"constructor","inputs":[{"name":"_factoryV1","type":"address","internalType":"address"},{"name":"_router","type":"address","internalType":"address"}],"stateMutability":"nonpayable"},{"type":"receive","stateMutability":"payable"},{"type":"function","name":"migrate","inputs":[{"name":"token","type":"address","internalType":"address"},{"name":"fee","type":"uint256","internalType":"uint256"},{"name":"amountTokenMin","type":"uint256","internalType":"uint256"},{"name":"amountETHMin","type":"uint256","internalType":"uint256"},{"name":"to","type":"address","internalType":"address"},{"name":"deadline","type":"uint256","internalType":"uint256"}],"outputs":[],"stateMutability":"nonpayable"}],"bytecode":{"object":"0x60c060405234801561001057600080fd5b506040516109503803806109508339818101604052604081101561003357600080fd5b5080516020909101516001600160601b0319606092831b8116608052911b1660a05260805160601c60a05160601c6108c96100876000398061030b52806103825280610414525080608752506108c96000f3fe6080604052600436106100225760003560e01c80639d5b84d51461002e57610029565b3661002957005b600080fd5b34801561003a57600080fd5b50610081600480360360c081101561005157600080fd5b506001600160a01b0381358116916020810135916040820135916060810135916080820135169060a00135610083565b005b60007f00000000000000000000000000000000000000000000000000000000000000006001600160a01b03166306f2bf62886040518263ffffffff1660e01b815260040180826001600160a01b03166001600160a01b0316815260200191505060206040518083038186803b1580156100fb57600080fd5b505afa15801561010f573d6000803e3d6000fd5b505050506040513d602081101561012557600080fd5b5051604080516370a0823160e01b815233600482015290519192506000916001600160a01b038416916370a08231916024808301926020929190829003018186803b15801561017357600080fd5b505afa158015610187573d6000803e3d6000fd5b505050506040513d602081101561019d57600080fd5b5051604080516323b872dd60e01b81523360048201523060248201526044810183905290519192506001600160a01b038416916323b872dd916064808201926020929091908290030181600087803b1580156101f857600080fd5b505af115801561020c573d6000803e3d6000fd5b505050506040513d602081101561022257600080fd5b505161026c576040805162461bcd60e51b81526020600482015260146024820152731514905394d1915497d19493d357d1905253115160621b604482015290519081900360640190fd5b60408051637c45f8ad60e11b81526004810183905260016024820181905260448201526000196064820152815160009283926001600160a01b0387169263f88bf15a9260848084019391929182900301818787803b1580156102cd57600080fd5b505af11580156102e1573d6000803e3d6000fd5b505050506040513d60408110156102f757600080fd5b50805160209091015190925090506103308a7f00000000000000000000000000000000000000000000000000000000000000008361046e565b604080516323491a3960e21b81526001600160a01b038c81166004830152602482018c905260448201849052606482018b9052608482018a905288811660a483015260c48201889052915160009283927f000000000000000000000000000000000000000000000000000000000000000090911691638d2468e491879160e480830192606092919082900301818588803b1580156103cd57600080fd5b505af11580156103e1573d6000803e3d6000fd5b50505050506040513d60608110156103f857600080fd5b50805160209091015190925090508183111561044c5761043a8c7f0000000000000000000000000000000000000000000000000000000000000000600061046e565b6104478c338486036105c2565b610460565b80841115610460576104603382860361070f565b505050505050505050505050565b604080516001600160a01b038481166024830152604480830185905283518084039091018152606490920183526020820180516001600160e01b031663095ea7b360e01b178152925182516000946060949389169392918291908083835b602083106104eb5780518252601f1990920191602091820191016104cc565b6001836020036101000a0380198251168184511680821785525050505050509050019150506000604051808303816000865af19150503d806000811461054d576040519150601f19603f3d011682016040523d82523d6000602084013e610552565b606091505b5091509150818015610580575080511580610580575080806020019051602081101561057d57600080fd5b50515b6105bb5760405162461bcd60e51b815260040180806020018281038252602b81526020018061083c602b913960400191505060405180910390fd5b5050505050565b604080516001600160a01b038481166024830152604480830185905283518084039091018152606490920183526020820180516001600160e01b031663a9059cbb60e01b178152925182516000946060949389169392918291908083835b6020831061063f5780518252601f199092019160209182019101610620565b6001836020036101000a0380198251168184511680821785525050505050509050019150506000604051808303816000865af19150503d80600081146106a1576040519150601f19603f3d011682016040523d82523d6000602084013e6106a6565b606091505b50915091508180156106d45750805115806106d457508080602001905160208110156106d157600080fd5b50515b6105bb5760405162461bcd60e51b815260040180806020018281038252602d815260200180610867602d913960400191505060405180910390fd5b604080516000808252602082019092526001600160a01b0384169083906040518082805190602001908083835b6020831061075b5780518252601f19909201916020918201910161073c565b6001836020036101000a03801982511681845116808217855250505050505090500191505060006040518083038185875af1925050503d80600081146107bd576040519150601f19603f3d011682016040523d82523d6000602084013e6107c2565b606091505b50509050806108025760405162461bcd60e51b81526004018080602001828103825260348152602001806108086034913960400191505060405180910390fd5b50505056fe5472616e7366657248656c7065723a3a736166655472616e736665724554483a20455448207472616e73666572206661696c65645472616e7366657248656c7065723a3a73616665417070726f76653a20617070726f7665206661696c65645472616e7366657248656c7065723a3a736166655472616e736665723a207472616e73666572206661696c6564a26469706673582212201c4ec29936a0586f2584b97265f6bc3aad240ccc6cb0db43f4b891151b288e2f64736f6c63430006060033","linkReferences":{}},"methodIdentifiers":{"migrate(address,uint256,uint256,uint256,address,uint256)":"9d5b84d5"},"id":0}